:020000040800F2
:101C000068060020451D00084D1D00084F1D0008F6
:101C1000511D0008531D0008551D0008000000005C
:101C2000000000000000000000000000571D000838
:101C3000591D0008000000005B1D00085D1D000824
:101C40005F1D00085F1D00085F1D00085F1D000884
:101C50005F1D00085F1D00085F1D00085F1D000874
:101C60005F1D00085F1D00085F1D00085F1D000864
:101C70005F1D00085F1D00085F1D00085F1D000854
:101C80005F1D00085F1D00085F1D00085F1D000844
:101C90005F1D00085F1D00085F1D00085F1D000834
:101CA0005F1D00085F1D00085F1D00085F1D000824
:101CB000C94B00085F1D00085F1D00085F1D00087C
:101CC0005F1D00085F1D00085F1D00085F1D000804
:101CD0005F1D00085F1D0008854C00085F1D00089F
:101CE0005F1D00085F1D00085F1D00085F1D0008E4
:101CF0005F1D00085F1D00085F1D00085F1D0008D4
:101D00005F1D00085F1D00085F1D00085F1D0008C3
:101D10005F1D00085F1D00085F1D00085F1D0008B3
:101D20005F1D00085F1D00085F1D00085F1D0008A3
:101D3000DFF80CD003F0BCFA00480047B54A0008B1
:101D4000680600200648804706480047FEE7FEE791
:101D5000FEE7FEE7FEE7FEE7FEE7FEE7FEE7FEE75B
:101D6000833E0008311D00080020411E3D4A1160DD
:101D70004A0D3C498039C1F88420411E4FF0E022D1
:101D8000C2F880124A0D38490A6000BF03E0002201
:101D900036490A54401C0B28F9D370473449014393
:101DA000344A1160704770B5002100230F22C478B7
:101DB00004B3304C246804F4E064C4F5E064210A00
:101DC000C1F10403CA40447804FA03F18478144052
:101DD00021430901254C0678A155047804F01F051C
:101DE0000124AC4005786D11AD0005F1E025C5F882
:101DF000004109E0047804F01F050124AC40194DAE
:101E00000678761145F8264070BD1B4A0A40024309
:101E1000184B1B1F1A60704739B1164A121D126801
:101E20000243144B1B1D1A6006E0124A121D126871
:101E30008243104B1B1D1A607047042808D14FF0D5
:101E4000E021096941F004014FF0E022116107E04F
:101E50004FF0E021096921F004014FF0E022116107
:101E60007047000080E100E084E200E000E400E070
:101E70000000FA050CED00E080FFFF1F10B50446DE
:101E8000CC48844208D10121042000F02DFB002120
:101E9000042000F029FB46E0C748844208D1012114
:101EA000082000F021FB0021082000F01DFB3AE093
:101EB000C248844208D10121102000F015FB002106
:101EC000102000F011FB2EE0BD48844208D1012112
:101ED000202000F009FB0021202000F005FB22E07B
:101EE000B848844208D10121402000F0FDFA0021C9
:101EF000402000F0F9FA16E0B348844208D10121ED
:101F0000802000F0F1FA0021802000F0EDFA0AE0D4
:101F1000AE48844207D10121801500F0E5FA002186
:101F2000A01500F0E1FA10BD10B50121084600F03F
:101F3000DBFA0021012000F0D7FA10BD2DE9F041B5
:101F4000024600250026002000230024002791F8E7
:101F500003C00CF00F0591F803C00CF0100CBCF19D
:101F6000000F03D091F802C04CEA050591F800C0BB
:101F7000BCF1000F31D0146800202BE04FF0010CB1
:101F80000CFA00F3B1F800C00CEA03069E4220D11F
:101F900083004FF00F0C0CFA03F7BC4305FA03FC67
:101FA0004CEA040491F803C0BCF1280F06D14FF0AD
:101FB000010C0CFA00FCC2F814C00AE091F803C04E
:101FC000BCF1480F05D14FF0010C0CFA00FCC2F82F
:101FD00010C0401C0828D1D31460B1F800C0BCF177
:101FE000FF0F34DD546800202EE000F1080C4FF0A4
:101FF000010808FA0CF3B1F800C00CEA03069E428F
:1020000021D183004FF00F0C0CFA03F7BC4305FA03
:1020100003FC4CEA040491F803C0BCF1280F05D17D
:1020200000F1080C08FA0CF8C2F8148091F803C00B
:10203000BCF1480F07D100F1080C4FF0010808FA75
:102040000CF8C2F81080401C0828CED35460BDE8BC
:10205000F0814FF6FF710180022181700421C1706F
:1020600070470246002093680B400BB1012000E04E
:10207000002070470146886880B270470246002001
:10208000D3680B400BB1012000E0002070470146EF
:10209000C86880B2704701617047416170470AB1FA
:1020A000016100E041617047C16070474FF48032C8
:1020B0000A43826181618261826982697047024656
:1020C0000020434B18684FF68073184040EA021016
:1020D00008433F4B186070473E49C8617047F0B5F0
:1020E0000A46002300240021002500F00046B6F136
:1020F000004F02D1364EF16901E0354E7168C0F3F0
:10210000034583B200F44016B6F5401F08D121F014
:1021100070612F4E766826F070662D4F7E6012E05B
:1021200000F48016B6F5801F06D1032606FA05F4E2
:10213000A14341F0706106E0460D360103FA06F650
:10214000B14341F0706122B1460D360103FA06F643
:10215000314300F00046B6F1004F02D11C4EF16150
:1021600001E01B4E7160F0BD30B500228B071C0FE3
:102170000F2303FA04F2164B08338C1053F8243063
:102180009343134C08348D1044F8253023468C10AB
:1021900053F824308C07240F00FA04F423430C4C2A
:1021A00008348D1044F8253030BD0A49DC31086010
:1021B0007047000000080140000C01400010014081
:1021C0000014014000180140001C014000200140A3
:1021D0000000014000002042DF48006840F001009C
:1021E000DD49086008464068DC490840DA49486033
:1021F00008460068DA490840D74908600846006880
:1022000020F4802008600846406820F4FE00486002
:102210004FF41F0088607047CF49096821F480316E
:10222000CD4A11601146096821F480211160B0F592
:10223000803F03D0B0F5802F0ED106E0C649096873
:1022400041F48031C44A116007E0C349096841F490
:10225000A021C14A116000E000BF00BF704710B567
:1022600001460022002300204A11012A02D1BA4C63
:10227000236806E0022A02D1B74C236A01E0B64C7B
:10228000636A01F01F02012494401C400CB101203C
:1022900000E0002010BD38B500200090002400258B
:1022A00000BF3120FFF7DBFF05460098401C00907F
:1022B0000098B0F5A06F01D0002DF2D03120FFF7CB
:1022C000CEFF08B1012400E00024204638BD0146BD
:1022D0000020A14A106820F0F80040EAC100106018
:1022E0007047A04908607047024600209A4B586822
:1022F00020F47C1042EA01031843974B5860704762
:1023000098490866704701460020934A506820F0BB
:1023100003000843506070478F48406800F00C008D
:102320007047014600208C4A506820F0F0000843B6
:102330005060704701460020874A506820F4E060F2
:1023400008435060704701460020834A506820F4DB
:10235000605040EAC1005060704729B17E4A527A0D
:1023600002437D4B5A7204E07B4A527A82437A4B95
:102370005A7270477B49D831086070470146002087
:10238000754A506820F4404008435060704700216F
:10239000714A20321170704A82F82010012802D050
:1023A00004280AD104E001216B4A2032117005E0B3
:1023B0000521694A2032117000E000BF00BF70475C
:1023C0006949086070476449096A0143624A1162B9
:1023D0007047654944390860704730B500210022D4
:1023E000002400235C4D6D6805F00C0121B1042927
:1023F00005D0082923D105E05C4D056022E05C4D45
:1024000005601FE0544D6D6805F47012524D6D6803
:1024100005F48034022505EB92421CB9554D554315
:1024200005600BE04C4D6D6805F400351DB1524D53
:102430005543056002E04E4D5543056002E04B4DAB
:10244000056000BF00BF444D6D6805F0F00109094B
:102450004A4D6B5C0568DD4045603F4D6D6805F495
:10246000E061090A454D6B5C4568DD4085603A4D89
:102470006D6805F46051C90A404D6B5C4568DD40EC
:10248000C560354D6D6805F44041890B3C4D6B5C72
:10249000C568B5FBF3F5056130BD29B12E4A526917
:1024A00002432D4B5A6104E02B4A526982432A4B66
:1024B0005A61704729B1284A92690243264B9A61B2
:1024C00004E0254A92698243234B9A61704729B1FF
:1024D000214AD2690243204BDA6104E01E4AD269E4
:1024E00082431D4BDA61704729B11B4AD26802430F
:1024F000194BDA6004E0184AD2688243164BDA605E
:10250000704729B1144A12690243134B1A6104E05F
:10251000114A12698243104B1A61704712494039BF
:10252000086070470F49C86470470B49C87170470D
:102530000948406A40F08070074948627047014688
:102540000020054A92680A400AB1012000E00020FC
:102550007047014988727047001002400000FFF880
:10256000FFFFF6FE000042428004424200127A0061
:10257000001BB70000093D00808D5B0000000020BB
:102580001000002001460020FE4A106800F03800CC
:10259000084310607047FB49096821F00801F94AB7
:1025A000116011460968014311607047F5490968D7
:1025B00021F01001F34A11601146096801431160CE
:1025C0007047F148EF494860F04848607047EE486E
:1025D000EC494860ED4848607047EA48006940F0BF
:1025E0008000E84908617047E648006940F08000D3
:1025F000E449086170470420E249C96801F001011B
:1026000009B101200EE0DF49C96801F0040109B1F8
:10261000022007E0DB49C96801F0100109B103207D
:1026200000E00420704700B502460423FFF7E3FFF3
:10263000034603E0FFF7DFFF0346521E012B01D1E3
:10264000002AF7D102B90523184600BD30B504466B
:1026500004254FF43020FFF7E6FF0546042D17D17F
:10266000C848006940F00200C64908610846446154
:10267000006940F0400008614FF43020FFF7D3FFBD
:102680000546C048006941F6FD710840BD49086132
:10269000284630BD10B504244FF43020FFF7C3FFA7
:1026A0000446042C16D1B748006940F00400B5492F
:1026B00008610846006940F0400008614FF430208E
:1026C000FFF7B1FF0446AF48006941F6FB710840CF
:1026D000AC490861204610BD00B502460423FFF74F
:1026E0008AFF034603E0FFF786FF0346521E012BD5
:1026F00001D1002AF7D102B90523184600BD10B553
:1027000004244FF43020FFF7E7FF0446042C16D1D1
:102710009C48006940F004009A4908610846006935
:1027200040F0400008614FF43020FFF7D5FF044629
:102730009448006941F6FB710840924908612046BF
:1027400010BD00208F49C96901F0020109B10120C3
:1027500000E00020704730B5A5250424FFF7F1FF05
:1027600000B100254FF43020FFF75DFF0446042C34
:102770003AD1854883498860844888600846006962
:1027800040F0200008610846006940F04000086100
:102790004FF43020FFF747FF0446042C1BD1794843
:1027A000006941F6DF710840764908610846006912
:1027B00040F01000086176480580E002FFF733FF23
:1027C0000446052C10D06F48006941F6EF710840AF
:1027D0006C49086108E0052C06D06A48006941F69A
:1027E000EF71084067490861204630BD78B506465C
:1027F0000C46042500200090E802FFF714FF054670
:10280000042D24D15F48006940F001005D49086152
:102810003480E802FFF707FF0546042D10D1B01CF5
:102820000090200C00990880E802FFF7FCFE0546A6
:102830005448006941F6FE7108405249086106E0BB
:102840005048006941F6FE7108404E49086128462B
:1028500078BD70B504460D460426F002FFF7E3FE8E
:102860000646042E11D14748006940F00100454951
:1028700008612580F002FFF7D6FE06464148006950
:1028800041F6FE7108403F490861304670BD70B5A1
:1028900005460E460424E002FFF7C5FE0446042C5C
:1028A00017D1394837498860384888600846006938
:1028B00040F0100008612E80E002FFF7B4FE0446ED
:1028C000052C06D02F48006941F6EF7108402D49CC
:1028D0000861204670BD2DE9F04304464FF6FF76AF
:1028E0003746B046B1460425E443E6B2C4F30727B1
:1028F000C4F307484FEA1469E802FFF794FE05465F
:10290000042D49D120481F49886020488860084626
:10291000006940F010000861FF2E06D01C48083006
:102920000680E802FFF77FFE0546042D08D1FF2F41
:1029300006D017480A300780E802FFF774FE054604
:10294000042D0AD1B8F1FF0F07D011480C30A0F8C0
:102950000080E802FFF767FE0546042D0AD1B9F1B1
:10296000FF0F07D00A480E30A0F80090E802FFF7EA
:102970005AFE0546052D0FD00248006941F6EF7159
:10298000084007E00020024023016745AB89EFCDF6
:1029900000F8FF1F664908612846BDE8F08330B59E
:1029A000054604244FF43020FFF73DFE0446042C76
:1029B00041D160485E4988605F4888600846006988
:1029C00040F0200008610846006940F040000861BE
:1029D0004FF43020FFF727FE0446042C22D1544840
:1029E000006941F6DF7108405149086108460069F5
:1029F00040F0100008611DB100205049088002E03D
:102A0000A5204E4908804FF43020FFF70CFE044605
:102A1000052C10D04648006941F6EF710840444942
:102A2000086108E0052C06D04148006941F6DF71D5
:102A300008403F490861204630BDF0B505460E46C6
:102A4000174604243B483A4988603B488860E002C6
:102A5000FFF7E9FD0446042C19D13548006940F020
:102A600010003349086147F0F800304328433349E8
:102A7000891C0880E002FFF7D6FD0446052C06D02D
:102A80002B48006941F6EF7108402949086120464A
:102A9000F0BD2748C069800870472548006A704724
:102AA00000202349096801F0200109B1012000E05C
:102AB0000020704729B11E4A126902431C4B1A615B
:102AC00004E01B4A12698243194B1A6170470146A0
:102AD0000020012908D1164AD26902F001020AB188
:102AE000012008E0002006E0114AD2680A400AB13D
:102AF000012000E0002070470D49C86070470420A5
:102B00000B49C96801F0010109B101200EE0084933
:102B1000C96801F0040109B1022007E00449C9684D
:102B200001F0100109B1032000E00420704700000B
:102B30000020024023016745AB89EFCD00F8FF1F5D
:102B400010B50446FE48844208D10121C014FFF7A5
:102B5000CBFC0021E014FFF7C7FCC4E0B4F1804FC8
:102B600008D101210846FFF7CCFC00210120FFF726
:102B7000C8FCB8E0F348844208D101210220FFF7E5
:102B8000C0FC00210220FFF7BCFCACE0EE48844210
:102B900008D101210420FFF7B4FC00210420FFF735
:102BA000B0FCA0E0E948844208D101210820FFF7E9
:102BB000A8FC00210820FFF7A4FC94E0E44884422C
:102BC00008D101211020FFF79CFC00211020FFF705
:102BD00098FC88E0DF48844208D101212020FFF7DB
:102BE00090FC00212020FFF78CFC7CE0DA48844236
:102BF00008D101214014FFF777FC00216014FFF792
:102C000073FC70E0D548844209D10121C804FFF764
:102C10006BFC00214FF40020FFF766FC63E0D04816
:102C2000844209D101210805FFF75EFC00214FF421
:102C30008010FFF759FC56E0CA48844209D10121AF
:102C40004805FFF751FC00214FF40010FFF74CFC42
:102C500049E0C548844208D101214020FFF751FCDA
:102C600000214020FFF74DFC3DE0C048844208D1E0
:102C700001218020FFF745FC00218020FFF741FC67
:102C800031E0BB48844208D101218015FFF739FCAF
:102C90000021A015FFF735FC25E0B648844209D194
:102CA00001210804FFF720FC00214FF48030FFF7DA
:102CB0001BFC18E0B048844209D101214804FFF709
:102CC00013FC00214FF40030FFF70EFC0BE0AB4883
:102CD000844208D101218804FFF706FC00214FF44B
:102CE0008020FFF701FC10BD00220288944B98421F
:102CF0000ED0994B98420BD0B0F1804F08D0914B39
:102D0000984205D0904B984202D0904B984204D103
:102D10004FF68F731A404B881A438D4B984207D059
:102D20008C4B984204D04FF6FF431A40CB881A438D
:102D300002808B8883850B880385814B98420BD05A
:102D4000854B984208D08B4B984205D08A4B9842CD
:102D500002D08A4B984201D10B7A038601238382E9
:102D6000704770B5002400220023058C4FF6FE76D4
:102D700035400584028C8388048B4FF68F752C4078
:102D8000B51E2C400D882C43751E2A400D892A4300
:102D90004D882A436A4DA8420BD06F4DA84208D0F7
:102DA000744DA84205D0744DA84202D0734DA8427C
:102DB00013D14FF6F7752A404D892A434FF6FB751C
:102DC0002A408D882A434FF6FF652B404FF6FF556A
:102DD0002B408D892B43CD892B4383800483CD8861
:102DE0008586028470BD70B5002400220023058C06
:102DF0004FF6EF7635400584028C8388048B48F6C5
:102E0000FF752C404FF6FF452C400D884FF6FF769E
:102E100006EA05252C434FF6DF752A400D8906EAA0
:102E200005152A434D8806EA05152A43444DA84254
:102E300002D0494DA8421DD14FF67F752A404D89D9
:102E40004FF6FF7606EA05152A434FF6BF752A406E
:102E50008D8806EA05152A434FF6FF352B404FF2C1
:102E6000FF752B408D8906EA85052B43CD8906EA3F
:102E700085052B4383800483CD880587028470BD3C
:102E800070B5002400220023058C4FF6FF66354004
:102E90000584028C8388848B4FF68F752C404FF607
:102EA000FC752C400D882C434FF6FF552A400D89A8
:102EB0004FF6FF7606EA05252A434D8806EA0525E2
:102EC0002A431F4DA84202D0234DA8421DD14FF2E4
:102ED000FF752A404D894FF6FF7606EA05252A43FD
:102EE0004FF6FF352A408D8806EA05252A434EF61F
:102EF000FF752B404DF6FF752B408D8906EA0515B1
:102F00002B43CD8906EA05152B4383808483CD8826
:102F10008587028470BD70B5002200230024058CD3
:102F20004EF6FF7635400584038C8488828B48F604
:102F3000FF752A404FF6FF452A400D8820E000002B
:102F4000002C01400004004000080040000C00403C
:102F5000001000400014004000340140004C0140CB
:102F6000005001400054014000180040001C004087
:102F70000020004000400140004401400048014062
:102F80004FF6FF7606EA05252A434DF6FF752B40DE
:102F90000D8906EA05352B434D8806EA05352B4396
:102FA000FA4DA84202D0FA4DA84208D14BF6FF755F
:102FB0002C408D894FF6FF7606EA85152C438480D8
:102FC0008283CD88A0F84050038470BD828B4FF27D
:102FD000FF331A408283828B4FF6FF7303EA01238B
:102FE0001A4382837047F0B50C4615460022002133
:102FF0000026078C4EF6FF7C07EA0C070784828BBD
:10300000018C4FF6FF7707EA043640F6FF473A4057
:103010004FF6FF7707EA05273A434FF6FF7707EAAF
:1030200003373A43D94FB8420ED0D94FB8420BD0EC
:10303000B0F1804F08D0D74FB84205D0D64FB84234
:1030400002D0D64FB84206D14DF6FF77394046F44C
:103050008057394305E047F6FF57394044F480571D
:10306000394382830184F0BD828B4FF6F3731A409B
:103070008283828B0A4382837047F0B50C461546E3
:10308000002200210026078C4FF6FF6C07EA0C0790
:103090000784828B018C4FF6FF7707EA04264FF6F0
:1030A0000C773A404FF6FF7707EA03172F433A436E
:1030B000B64FB8420ED0B64FB8420BD0B0F1804FE9
:1030C00008D0B44FB84205D0B34FB84202D0B34F86
:1030D000B84206D14FF6FF57394046F4807739435E
:1030E00005E04FF2FF57394044F48077394382833B
:1030F0000184F0BD028B4FF2FF331A400283028B32
:103100004FF6FF7303EA01231A4302837047F0B5B9
:103110000C461546002200210026078C4FF6EF7C56
:1031200007EA0C070784028B018C4FF6FF7707EA4A
:10313000041640F6FF473A404FF6FF7707EA033799
:103140003A434FF6FF7707EA05273A438F4FB842D5
:103150000ED08F4FB8420BD0B0F1804F08D08D4FBA
:10316000B84205D08C4FB84202D08C4FB84206D13D
:103170004FF6DF77394046F01007394305E04FF648
:103180005F77394044F01007394302830184F0BD72
:10319000028B4FF6F3731A400283028B0A430283B9
:1031A0007047F0B50C46154600220021068C4FF6FC
:1031B000FE773E400684028B018C4FF60C7632403F
:1031C0007E1C06EA03162E433243704EB0420ED0E8
:1031D0006F4EB0420BD0B0F1804F08D06D4EB04270
:1031E00005D06D4EB04202D06C4EB04206D14FF6C3
:1031F000FD76314044F00106314305E04FF6F576A7
:10320000314044F00106314302830184F0BD70B5C2
:1032100005460C465D4885420ED05D4885420BD080
:10322000B5F1804F08D05B48854205D05A488542A9
:1032300002D05A48854200D100E000BF208850B932
:103240002389A28861882846FFF7ABFFE1882846DA
:10325000FFF79EFF25E0208804280AD12389A28851
:1032600061882846FFF753FFE1882846FFF742FFB1
:1032700017E0208808280AD12389A2886188284677
:10328000FFF7FBFEE1882846FFF7EEFE09E0238901
:10329000A28861882846FFF7A6FEE1882846FFF746
:1032A00095FE70BD2DE9F04105460C46002601272C
:1032B000608808B9022600E00026A088012801D114
:1032C000022700E001272088A0B92389A28861880D
:1032D0002846FFF766FFE1882846FFF759FF238954
:1032E0003A4631462846FFF712FFE1882846FFF7A5
:1032F00001FF13E02389A28861882846FFF707FFB2
:10330000E1882846FFF7F6FE23893A4631462846EB
:10331000FFF747FFE1882846FFF73AFFBDE8F08155
:103320000A884B881A438B881A43CB881A430B8927
:103330001A434B891A438B891A43A0F844207047DB
:103340004FF6FF71818000210180C18041800172B0
:1033500070470021018041808180C18001814181CD
:103360008181C181704700210180418001218180DC
:103370000021C1800181704700210180418081804E
:10338000C18001814181818170470000002C014092
:10339000003401400004004000080040000C0040E0
:1033A00021B1028842F00102028004E002884FF657
:1033B000FE731A400280704731B1B0F8442042F4E5
:1033C0000042A0F8442005E0B0F84420C2F30E0209
:1033D000A0F8442070471AB183890B43838102E02F
:1033E00083898B43838170478182704741EA02035E
:1033F000A0F8483070471AB183890B43838102E0FB
:1034000083898B438381704701894FF6F87211409D
:10341000018170470A46002101894FF68F731940D8
:1034200011430181704730B504460D4629462046B8
:10343000FFF7F0FF208940F00700208130BD2DE923
:10344000F04104460D4616461F46602D06D13B4608
:10345000012231462046FFF75AFE05E03B46012295
:1034600031462046FFF79DFE29462046FFF7D2FF52
:10347000208940F007002081BDE8F08130B50C467E
:1034800000210189C9B24FF6FF7505EA03251543EE
:1034900025432943018130BD2DE9F04105460E4603
:1034A00017469846002443463A4631462846FFF7D9
:1034B000E5FF2C894FF6F870044044F007044FF6FE
:1034C0008F70044044F070042C81BDE8F081F0B5A9
:1034D00004460D4616461F463B46324629462046C0
:1034E000FFF7CCFF208940F480402081F0BD0185AA
:1034F000828270470A46002101884FF68F73194077
:10350000114301807047F0B50C4615461E46002158
:10351000002200230189028B038C4FF6F877394093
:1035200021434FF6FC473A4040F201173A434FF629
:10353000DD773B404FF6FF7707EA06172F433B4303
:10354000018102830384F0BD0A460021018B4FF6FE
:103550008F7319401143018370470A460021018B84
:1035600048F6FF7319404FF6FF7303EA022319432D
:10357000018370470A460021818B4FF68F731940F3
:103580001143818370470A460021818B48F6FF73FF
:1035900019404FF6FF7303EA0223194381837047F2
:1035A00021B1028842F08002028004E002884FF6D6
:1035B0007F731A400280704721B1828842F0040272
:1035C000828004E082884FF6FB731A408280704745
:1035D00021B1828842F00802828004E082884FF69E
:1035E000F7731A408280704721B1828842F001024D
:1035F000828004E082884FF6FE731A408280704712
:103600000A460021018B4FF6F773194011430183DD
:1036100070470A460021018B4FF2FF7319404FF6A5
:10362000FF7303EA02231943018370470A4600210E
:10363000818B4FF6F77319401143818370470A4617
:103640000021818B4FF2FF7319404FF6FF7303EA9D
:1036500002231943818370470A460021018B4FF6EC
:10366000FB7319401143018370470A460021018B07
:103670004FF6FF3319404FF6FF7303EA0223194355
:10368000018370470A460021818B4FF6FB73194076
:103690001143818370470A460021818B4FF6FF3327
:1036A00019404FF6FF7303EA0223194381837047E1
:1036B0000A460021018B4FF67F73194011430183A5
:1036C00070470A460021018BC1F30E014FF6FF73CC
:1036D00003EA02231943018370470A460021818BC4
:1036E0004FF67F7319401143818370470A460021CA
:1036F000818BC1F30E014FF6FF7303EA02231943D6
:10370000818370470A460021018C4FF6FD731940F2
:103710001143018470470A460021018C4FF6F7736C
:1037200019401143018470470A460021018C4FF66D
:10373000DF7319404FF6FF7303EA02131943018444
:1037400070470A460021018C4FF67F7319404FF6EF
:10375000FF7303EA02131943018470470A460021EC
:10376000018C4FF6FF5319404FF6FF7303EA022313
:103770001943018470470A460021018C4FF2FF7300
:1037800019404FF6FF7303EA02231943018470477F
:103790000A460021018C4DF6FF7319404FF6FF7366
:1037A00003EA023319430184704730B50023012432
:1037B0008C40A3B2048C9C430484048C02FA01F56F
:1037C000ADB22C43048430BD30B5002304248C40BA
:1037D000A3B2048C9C430484048C02FA01F5ADB2BC
:1037E0002C43048430BD70B50346002000241846E5
:1037F000183001258D40ACB21D8CA5431D8409B144
:10380000082909D100EB6100056825F07005056005
:103810000568154305600EE00D1FC5F34E052844ED
:10382000056825F4E045056005684FF6FF7606EA71
:1038300002263543056070BD21B1028842F00202C4
:10384000028004E002884FF6FD731A400280704740
:1038500021B1028842F00402028004E002884FF69F
:10386000FB731A400280704721B1828842F08002C7
:10387000828004E082884FF67F731A40828070470E
:1038800002884FF6F7731A40028002880A430280CA
:10389000704782884FF68F731A40828082880A436D
:1038A0008280704702894FF6F8731A4002810289BC
:1038B0000A430281704702894FF67F731A400281E2
:1038C00002890A430281704781847047818570476D
:1038D000818670470187704781877047A0F8401044
:1038E000704702884FF6FF431A40028002880A435D
:1038F000028070470146888E70470146088F7047E6
:103900000146888F70470146B1F840007047014674
:10391000888C70470146088D704702460020138A44
:103920000B400BB1012000E000207047CA43028227
:10393000704730B50246002000230024158A05EAAE
:103940000103958905EA010413B10CB1012000E0DF
:10395000002030BDCA430282704700000E49086053
:1039600070470D49486070470B49886070474AF6B8
:10397000AA200949086070474CF6CC400649086007
:10398000704701460020044AD2680A400AB101206B
:1039900000E00020704700000030004010B50446F1
:1039A000FB48844209D101218803FEF79DFD0021D7
:1039B0004FF48040FEF798FD32E0F648844209D18A
:1039C00001214804FEF79DFD00214FF40030FEF771
:1039D00098FD25E0F048844209D101218804FEF7D2
:1039E00090FD00214FF48020FEF78BFD18E0EB489E
:1039F000844209D10121C804FEF783FD00214FF460
:103A00000020FEF77EFD0BE0E548844208D101214D
:103A10000805FEF776FD00214FF48010FEF771FDDA
:103A200010BD2DE9F04786B005460E460024A2469B
:103A300000BFA1460027B08900B100BF2F462C8AE5
:103A40004CF6FF700440F08804432C82AC894EF69B
:103A5000F3100440B0883189084371890843044356
:103A6000AC81AC8A4FF6FF400440B0890443AC827D
:103A700001A8FEF7B2FCC648874202D1DDF810A0CB
:103A800001E0DDF80CA0A88900F4004040B10AEB89
:103A9000CA0000EB0A1031684900B0FBF1F807E0FA
:103AA0000AEBCA0000EB0A1031688900B0FBF1F89C
:103AB0006420B8FBF0F004012009642101FB1089A7
:103AC000A88900F4004040B1322000EBC900B0FBEF
:103AD000F1F000F00700044308E0322000EB091089
:103AE0006421B0FBF1F000F00F0004432C8106B01C
:103AF000BDE8F0874FF41651016000218180C1803C
:103B000001810C21418100218181704710B502465D
:103B10000020108A4FF2FF0318400B884C88234383
:103B20008C882343CC8823431843108210BD002186
:103B3000018041808180C180704721B1828942F437
:103B40000052828104E082894DF6FF731A4082811F
:103B50007047F0B50346002400260025002040F6FB
:103B60006A17B94200D100BF1846C1F3421401F0F0
:103B70001F06012707FA06F5012C01D10C3004E0DD
:103B8000022C01D1103000E014301AB107682F4325
:103B9000076002E00768AF430760F0BD1AB1838A8F
:103BA0000B43838202E0838A8B4383827047028ABD
:103BB0004FF6F0731A400282028A0A43028270476B
:103BC00082894FF2FF731A40828182890A4382817F
:103BD000704721B1828942F00202828104E0828929
:103BE0004FF6FD731A4082817047028A4FF6DF73E9
:103BF0001A400282028A0A430282704721B1028A75
:103C000042F48042028204E0028A4BF6FF731A40BB
:103C100002827047C1F3080282807047014688889B
:103C2000C0F308007047818941F00101818170472C
:103C3000028BD2B20283028B42EA012202837047D6
:103C4000028B02F47F420283028B0A430283704795
:103C500021B1828A42F02002828204E0828A4FF6F9
:103C6000DF731A408282704721B1828A42F01002CB
:103C7000828204E0828A4FF6EF731A408282704794
:103C800021B1828A42F00802828204E0828A4FF6E1
:103C9000F7731A408282704721B1828942F4004250
:103CA000828103E08289C2F30E028281704721B1D2
:103CB000828A42F40062828204E0828A4FF2FF73B9
:103CC0001A4082827047828A4FF6FB731A408282C2
:103CD000828A0A438282704721B1828A42F00202BC
:103CE000828204E0828A4FF6FD731A408282704716
:103CF00002460020B1F5007F00D100BF13880B40C1
:103D00000BB1012000E00020704701F40072B2F511
:103D1000007F00D100BFCA430280704770B50246E1
:103D2000002400230025002040F66A16B14200D18D
:103D300000BFC1F3421501F01F03012606FA03F389
:103D4000012D02D19689334006E0022D02D1168A58
:103D5000334001E0968A33400C12012606FA04F43F
:103D60001688344013B10CB1012000E0002070BD72
:103D700010B50022002340F66A14A14200D100BF12
:103D80000A1201249440A3B2DC43048010BD000059
:103D9000003801400044004000480040004C004012
:103DA000005000400CB50020019000906C48006865
:103DB00040F480306A49086000BF6948006800F438
:103DC000003000900198401C0190009818B90198AB
:103DD000B0F5A06FF1D16248006800F4003010B176
:103DE0000120009001E0002000900098012843D1BC
:103DF0005C48006840F010005A49086008460068B6
:103E000020F0030008600846006840F002000860E7
:103E10005348406852494860084640684860084630
:103E2000406840F4806048600846406820F47C1098
:103E300048600846406840F4E8104860084600685A
:103E400040F08070086000BF4548006800F00070D6
:103E50000028F9D04248406820F0030040494860FB
:103E60000846406840F00200486000BF3C48406897
:103E700000F00C000828F9D10CBD10B5FFF792FF37
:103E800010BD10B53648006840F0010034490860A4
:103E9000084640683449084031494860084600688F
:103EA000324908402E4908600846006820F4802006
:103EB00008600846406820F4FE0048604FF41F0088
:103EC0008860FFF7DAFF4FF000602949086010BDF5
:103ED00010B5002100200022214B5B6803F00C018B
:103EE00021B1042906D0082928D107E0214B224C12
:103EF000236027E0214B204C236023E0184B5B68B4
:103F000003F47010164B5B6803F48032022303EB5A
:103F1000904022B91A4B4343174C23600DE0104BDD
:103F20005B6803F4003323B1164B4343124C236008
:103F300003E0124B4343104C236003E00D4B0E4C47
:103F4000236000BF00BF064B5B68C3F303130E4C36
:103F5000E15C094B1B68CB40074C236010BD00009F
:103F600000100240002002400000FFF8FFFFF6FEB4
:103F700008ED00E000127A0014000020001BB700DA
:103F800000093D00808D5B001800002000BF011E6D
:103F9000A0F10100FBD17047012080F3138800BF1E
:103FA00000BF6B48006800F4E0606A490843001DE8
:103FB00067490860BFF34F8F00BF00BFFEE72DE9E0
:103FC000FF5F074688461D460024A146BA46A34621
:103FD00000264146504601F0FFF8044614B1BAF1FC
:103FE000000F03D1002004B0BDE8F09F4FF0000B9C
:103FF00004E0641C0BF1010000F0FF0B404601F0EF
:10400000FDF85845F5D82046029901F0E5F88146BB
:10401000B9F1000F01D10020E5E703E014F8010B2E
:10402000A855761C4C45F9D10020A8552846DAE75A
:104030002DE9F04706460F4614464FF00009354675
:10404000CA4616B1002F00DD14B90020BDE8F08784
:10405000207808B90020F9E7204601F0CFF8814622
:10406000A7EB090000F1010A4FF000080EE02878E4
:104070002178884207D14A462146284601F0C5F8F2
:1040800008B92846E2E76D1C08F10108D045EEDBCF
:104090000020DBE72DE9F05F06460C4692461F46FE
:1040A0000025AB46B046A94622464FF40071404673
:1040B000FFF7BEFF054615B1B8F1000F02D1002091
:1040C000BDE8F09F4FF0000904E06D1C09F101000C
:1040D00000F0FF09204601F091F84845F5D8524616
:1040E0002946384601F048F84046E9E7F0B503466E
:1040F0000D461646002729460A2E03D000200870D8
:104100002846F0BD33B9302001F8010B00200870BB
:104110002846F6E7002B03DA2D2001F8010B5B425D
:1041200042F210720DE093FBF2F404B937B104F1DE
:10413000300001F8010B04FB123301270A2092FB27
:10414000F0F2002AEFDC002008702846D9E70000D2
:104150000CED00E00000FA052DE9F04105460E46A1
:1041600004270024FEF72DFA3520FEF7C5FC00BF1A
:1041700007E04FF4806101FB0450FEF767FA074641
:10418000641CB44201D2042FF3D0FEF726FABDE836
:10419000F0812DE9F04104460F4690463E46254603
:1041A000FEF70FFA25460CE031882846FEF751FB52
:1041B00030882988884202D00020BDE8F081B61CF2
:1041C000AD1C04EB0800A842EED8FEF706FA012069
:1041D000F3E7F0B50B4684180146002506E091F898
:1041E00000C02E466D1C03F806C0491CA142F6D340
:1041F000F0BD70B504460D46FEF7E3F929462046AA
:10420000FEF727FB2088A84201D0002070BDFEF7F2
:10421000E4F90120FAE7014608787047F0B5ADF5FA
:10422000057D04460D46002600274FF4007105A8C1
:1042300000F0BBFF1421684600F0B7FF0020F749EB
:10424000087040F20221F648006800F0AEFFF54821
:1042500080690020F349886155E04FF4007105A89A
:1042600000F0A3FF05A9EE480068801C00F04FFD98
:10427000EDA105A800F0B0FF58B16B46EBA2ECA190
:1042800005A8FFF79CFE684600F0CCFF0646012714
:104290002AE040F20221E248006800F086FFDF4891
:1042A000007868B92B462246E5A1EB4800F04DFDA9
:1042B0000120DA490870DB48006A0020D949086209
:1042C00040F6B83000F0BCFCD648806942F210716C
:1042D000884204D30020D3498861012000E00020F7
:1042E00010B100277E1E10E0CE48006AB0F5FA6FCC
:1042F00004D30020CB490862012000E0002010B167
:104300000020C6490870002FA7D000BF40F202214C
:10431000C348006800F049FF30460DF5057DF0BD4B
:1043200070B5ADF5067D04460D460026142181A822
:1043300000F03BFF4FF4007101A800F036FF40F29F
:104340000221B748006800F030FFB64880690020BD
:10435000B44988614AE04FF4007101A800F025FFDC
:1043600001A9AF480068801C00F0D1FCAEA101A8F3
:1043700000F032FF08B1012629E040F20221A848EE
:10438000006800F012FFA548007868B92B46224665
:10439000ABA1B14800F0D9FC0120A0490870A148A8
:1043A000006A00209F4908624FF47A6000F048FCE0
:1043B0009C48806942F21071884204D300209949D8
:1043C0008861012000E0002008B1002610E0954837
:1043D000006AB0F5FA6F04D3002092490862012008
:1043E00000E0002010B100208C490870002EB2D0EF
:1043F00000BF40F202218A48006800F0D6FE304635
:104400000DF5067D70BDF0B5ADF50D7D05460F4689
:10441000002600244FF400710DA800F0C6FE142100
:1044200008A800F0C2FE2021684600F0BEFE40F25F
:1044300002217B48006800F0B8FE7A4880690020BD
:104440007849886169E04FF400710DA800F0ADFE75
:104450000DA973480068801C00F059FC72A24FF44B
:1044600000710DA8FFF7E4FDF8B108AB6FA27BA1C6
:104470000DA8FFF7A4FD08A800F0D4FE0446002C08
:1044800011DD76A1684600F09BFE08A9684600F0A1
:1044900097FE66A1684600F093FEA2B22B466946DD
:1044A0000DA8FFF7F7FD012628E040F202215C4845
:1044B000006800F07AFE5948007858B96AA1664849
:1044C00000F043FC0120554908705648006A00205E
:1044D000544908624FF4FA7000F0B2FB5148806909
:1044E00042F21071884204D300204E4988610120B5
:1044F00000E0002010B10026741E10E04948006A58
:10450000B0F5FA6F04D3002046490862012000E0AC
:10451000002010B1002041490870002E93D000BF48
:1045200040F202213E48006800F03FFE20460DF5B3
:104530000D7DF0BD2DE9F04FC1B081460E464FF024
:10454000000B0024002700254FF4807101A800F023
:104550002CFEDFF828A1494649A0FFF75FFE074679
:10456000002F03DC002041B0BDE8F08F494646A093
:10457000FFF7D6FE8346BBF1010F01D00020F2E722
:1045800031E000F0E7FC4FF4807101A8FFF73BFF3A
:10459000044625442A463DA1414800F0D6FB002CA4
:1045A00017DD4FF0000800BF09E0307801A911F8CD
:1045B00008100844307008F101001FFA80F8A04587
:1045C000F3DBA2B201A95046FFF7E3FDA2440024A9
:1045D00009E01CB9AF4201D10120C4E71CB9AF42C8
:1045E00001D00020BFE7CCE72DE9F041C0B007467D
:1045F0004FF000084FF48071684600F0D6FD0024AB
:104600000026002527A11EA0FFF708FE0646701C05
:1046100018B9002040B0BDE8F08149E02900002031
:1046200034000020400000204F4B00000D0A000025
:104630005349533A20302C342C3231332C000000B3
:104640000D0A41545E465450434D443D312C257370
:104650002C25730D0A000000004400405E534953AE
:10466000523A20312C0000000D0A41545E53495348
:10467000523D312C3235360D0A000000002C010865
:1046800053495A4500000000474554000D0A746F15
:1046900074616C5F6C656E203D2025640D0A00001E
:1046A000003801407570646174612E696E690000A4
:1046B000AFF21001AFF23000FFF732FE8046B8F1E2
:1046C000010F03D0002040B0BDE8F08121E000F0F0
:1046D00041FC4FF480716846FFF795FE044625447F
:1046E000002C0CDD2A460BA1104800F02EFB3B46A7
:1046F0000DA20FA16846FFF762FC002409E01CB977
:10470000AE4201D10120DEE71CB9AE4201D000204B
:10471000D9E7DCE70D0A696E695F746F74616C5FDD
:104720006C656E203D2025640D0A000000380140B4
:104730003A66696C655F6E616D653D00F0B5ADF51B
:10474000017D04460F46154600264FF4007101A86E
:1047500000F02BFD00209449087040F2022193489C
:10476000006800F022FD9248C06900209049C861AD
:1047700046E04FF4007101A800F017FD01A98B4835
:104780000068801C00F0C3FA394601A800F024FD3F
:1047900008B1012625E040F202218448006800F0BB
:1047A00004FD8148007858B92146824800F0CDFACE
:1047B00001207D4908707E48006A00207C4908621B
:1047C0004FF4487000F03CFA7948C069A84204D31D
:1047D00000207749C861012000E0002008B10026D0
:1047E00010E07348006AB0F5FA6F04D300207049F6
:1047F0000862012000E0002010B100206A49087022
:10480000002EB6D000BF40F202216848006800F0D8
:10481000CCFC30460DF5017DF0BD10B50024664896
:1048200000780B2810D2DFE800F006102132435444
:1048300065768798A90000F009FC42F2107000F03C
:10484000FFF901205C490870A9E042F210725BA1F7
:104850005BA0FFF773FF0446012C03D102205649E9
:10486000087002E000205449087098E042F210728B
:1048700052A156A0FFF762FF0446012C03D103208A
:104880004D49087002E000204B49087087E042F271
:1048900010724AA151A0FFF751FF0446012C03D129
:1048A00004204549087002E000204349087076E082
:1048B00042F2107241A14DA0FFF740FF0446012CC7
:1048C00003D105203C49087002E000203A490870F5
:1048D00065E042F2107239A14BA0FFF72FFF0446AA
:1048E000012C03D106203449087002E0002032492F
:1048F000087054E042F2107230A149A0FFF71EFF89
:104900000446012C03D107202B49087002E0002047
:104910002949087043E042F2107228A145A0FFF730
:104920000DFF0446012C03D108202349087002E042
:1049300000202149087032E042F210721FA144A009
:10494000FFF7FCFE0446012C03D109201A49087028
:1049500002E000201849087021E042F2107217A10D
:1049600041A0FFF7EBFE0446012C03D10A201249B7
:10497000087002E000201049087010E044F6206240
:104980000EA148A0FFF7DAFE0446012C03D10B204C
:104990000949087002E000200749087000BF00BF05
:1049A0000548007810BD00002900002034000020D8
:1049B0004000002000440040280000204F4B000031
:1049C0000D0A41542B4353510D0A00000D0A415466
:1049D0002B435245473D310D0A0000000D0A41545A
:1049E0002B435245473F0D0A000000000D0A415479
:1049F0005E534943533D302C636F6E547970652C80
:104A000047505253300D0A000D0A41545E5349433A
:104A1000533D302C61706E2C434D4E45540D0A00B1
:104A20000D0A41545E495043464C3D31342C310D02
:104A30000A0000000D0A41545E534953533D312C86
:104A4000737276547970652C6674700D0A000000DC
:104A50000D0A41545E534953533D312C636F6E49E7
:104A6000642C300D0A0000000D0A41545E53495376
:104A7000533D312C616464726573732C22667470CB
:104A80003A2F2F777A79383934333A35323078699A
:104A9000616F403031302E33766674702E636F6DE7
:104AA000220D0A000D0A41545E5349534F3D310D0A
:104AB0000A0000008AB0002400200990002614217A
:104AC00004A800F072FB002500F03CFB4FF47A7064
:104AD00000F0B6F86AE000F03DFA032E2AD005DCBB
:104AE0004EB1012E12D0022E5ED119E0042E2CD030
:104AF000FF2E59D155E0FFF790FE04460B2C04D150
:104B000000202B490870099001264EE004A8FFF709
:104B10006BFD0446012C01D1022600E0002644E092
:104B200001212448FFF718FB32212348FFF714FB2B
:104B300003263AE009A904A8FFF7FCFC0446012C6F
:104B400001D1042600E000262FE000200190029011
:104B5000039004A919A0FFF761FB054629461648F2
:104B600000F091F99DF82410884218D10A2201A979
:104B70002846FFF7BBFA0A2201A90E48FFF709FBF6
:104B800001211048FFF7E8FA01210E48FFF731FB39
:104B900001210C48801CFFF72CFBFF2600E00026BB
:104BA00003E0FFF7F9F900E000BF00BF93E7000062
:104BB0002800002000F80108002C010853495A453C
:104BC0000000000000F4010810B50024012188074E
:104BD000FEF7AFFE012832D101218007FEF7BAFEB1
:104BE0002448006820B123480068401E214908601D
:104BF00021480068401C2049086008460068B0F55C
:104C00007A7F03D108211D48FDF747FA1A4800684A
:104C1000B0F5FA6F06D108211848FDF73CFA0020DC
:104C200015490860002408E0154850F82400401C8D
:104C3000134941F82400601C84B2092CF4DB10BD38
:104C40000C49086000BF0B4909680029FBD1704777
:104C500010B5024600230A4850F82200884205D3C6
:104C60000020074C44F82200012300E0002300202C
:104C700010BD00002C00002030000020000C01407E
:104C80004000002010B5002400207149087040F257
:104C900025517048FFF742F820B340F225516D4886
:104CA000FFF766F86B48FEF7B9FFC4B200206A4907
:104CB00008706A484069002068494861684800688F
:104CC0000088B0F5007F0EDA654800680188644806
:104CD00000680088401C624A1268108060480068C2
:104CE000801C445406E001205B49087000205C49A8
:104CF0000968088040F227715648FFF70FF828B17D
:104D0000002240F227715348FEF723FF10BD70B513
:104D100004460D4651484069282804D300204F49D5
:104D20004861012000E0002010B101204A490870CC
:104D300049480078012807D142022146284600F060
:104D40001BFA00204449087070BD0FB470B586B0DE
:104D500006460CA8019073E00B9800785C281CD1E3
:104D60000B98401C0B9000786E2809D072280FD148
:104D70000D213046FEF74EFF0B98401C0B900BE0C8
:104D80000A213046FEF746FF0B98401C0B9003E0CB
:104D90000B98401C0B9000BF4BE00B980078252827
:104DA00040D10B98401C0B900078642818D07328D1
:104DB00033D1019810C801900BE021783046FEF7FE
:104DC00029FF00BF40213046FEF792FF0028F9D0AE
:104DD000641C20780028F0D10B98401C0B9020E038
:104DE000019820C801900A2202A92846FFF77EF9FF
:104DF00002AC0BE021783046FEF70CFF00BF4021EB
:104E00003046FEF775FF0028F9D0641C2078002892
:104E1000F0D10B98401C0B9003E00B98401C0B90BA
:104E200000BF06E00B9810F8011B0B903046FEF710
:104E3000F1FE00BF40213046FEF75AFF0028F9D0AE
:104E40000B980078002887D106B070BC5DF814FB81
:104E500029000020004400403800002040000020CD
:104E6000340000203EB50024002000900190029004
:104E70000A2269461148FFF7ACF9684600F0D2F9FA
:104E8000044620463EBDF8B506460F4600240020E5
:104E90000090002500BF0DE0301902226946FFF79F
:104EA00098F99DF800002844C5B29DF801002844F7
:104EB000C5B2A41CBC42EFD32846F8BD00F80108D7
:104EC00010B5FDF789F94FF48030FDF7A5F9FDF72E
:104ED000E2F90446012C23D11020FDF767FB0220E4
:104EE000FDF750FB0020FDF71CFA0020FDF72BFA20
:104EF0000020FDF71FFA21050811FDF7F5F9012043
:104F0000FDF7FEF900BF3920FDF7A9F90028FAD016
:104F10000220FDF7F8F900BFFDF7FEF90828FBD1E4
:104F200001218F48FDF7D3FA01213D20FDF7C2FA98
:104F300010BD10B545F25550FEF710FD0620FEF7E6
:104F400010FD40F6FE70FEF70FFDFEF710FDFEF7B8
:104F500013FD10BD10B5FEF70AFD10BD08B5012107
:104F60008048FDF7BCF80820ADF8000010208DF84F
:104F7000030003208DF8020069467B48FCF7DEFF42
:104F80000420ADF8000018208DF8030003208DF8F0
:104F9000020069467548FCF7D1FF0820ADF8000013
:104FA00004208DF8030003208DF8020069466F4845
:104FB000FCF7C4FF0320ADF800008DF802001020BC
:104FC0008DF8030069466948FCF7B8FF4FF40050BC
:104FD000ADF8000003208DF8020010208DF80300CA
:104FE00069466348FCF7AAFF4FF400516048FDF79B
:104FF00054F802215D48FDF750F801215B48FDF7A8
:105000004CF808BD3EB54FF47A74E006FDF798FD04
:105010000020ADF80200ADF80600601E80B2ADF8C9
:1050200004004720ADF800006946E006FDF75CFE8D
:105030000021E006FEF748FC012211469007FEF72A
:10504000CAF901218807FEF7ABF93EBD10B54FF450
:1050500000514748FDF71FF802214448FDF71DF8AD
:10506000FA20FFF7EDFD01214048FDF714F8C820B4
:10507000FFF7E6FD01213D48FDF70FF8C820FFF7D7
:10508000DFFD02213948FDF706F840F24C40FFF7FA
:10509000D7FD02213548FDF700F810BD1FB5354892
:1050A000FEF77CFC4FF4E13000900020ADF80400E6
:1050B000ADF80600ADF80800ADF80C000C20ADF816
:1050C0000A0069462B48FEF7ACFC012240F227712A
:1050D0002848FEF73EFD012240F225512548FEF703
:1050E00038FD01212348FEF728FD1FBD08B5FCF758
:1050F0003BFE4FF4E0514FF00060FCF786FE4FF4AA
:10510000E060FCF74BFE1C208DF800000A208DF8B3
:10511000010000208DF8020001208DF80300684690
:10512000FCF741FE26208DF8000001208DF80100DB
:1051300000208DF8020001208DF803006846FCF77E
:1051400032FE08BD10B5FFF7BBFEFFF7CFFFFFF73C
:1051500005FFFFF7EEFEFFF755FFFFF79FFF10BDBE
:105160000100020000023000000C01400008014074
:10517000001001400044004040EA01039B0703D0B7
:1051800009E008C9121F08C0042AFAD203E011F886
:10519000013B00F8013B521EF9D27047D2B201E048
:1051A00000F8012B491EFBD270470022F6E710B52C
:1051B00013460A4604461946FFF7F0FF204610BD85
:1051C000421E12F8013F002BFBD111F8013B02F8FF
:1051D000013B002BF9D1704730B505462A460B46F6
:1051E00012F8010B13F8014B08B1A042F8D01CB122
:1051F000002802D06D1CF1E7284630BD421C10F893
:10520000011B0029FBD1801A704730B504460020ED
:10521000034600E05B1C934203D2E05CCD5C401B84
:10522000F8D030BD70B5064600F0B6F80468054603
:105230000A220021304600F002F82C6070BD2DE9F2
:10524000F04791460F4680460446002614F8015B5D
:105250002DB100F03FF80068405DC007F6D12B2D5E
:1052600002D02D2D18D0641E4A463946204600F043
:1052700035F827B13968A14201D1C7F8008071051E
:105280004FF002040BD54042002803DD00F084F803
:105290000460A007BDE8F08746F48066E4E70028D4
:1052A000F8DA00F079F804606FF00040F2E70000EF
:1052B000064C074D06E0E06840F0010394E8070063
:1052C00098471034AC42F6D3FCF736FD445400083E
:1052D0006454000800487047405400082DE9F05F0E
:1052E00082460078002715468B460AF10104B9462C
:1052F000302801D09DB113E014F8010B0127782864
:1053000003D0582801D045B10AE00DB1102D07D1C6
:105310000027102514F8010B02E0082500E00A25FB
:105320000026B0460EE005FB080005FB06F101274C
:1053300001EB10461FFA80F8B6F5803F00D3B9465E
:1053400014F8010B294600F018F80028EBDABBF13D
:10535000000F05D00FB1641E00E05446CBF80040AA
:10536000B9F1000F06D000F017F802210160C81E45
:10537000BDE8F09F48EA0640FAE73A2800D2303804
:1053800020F02002412A01D3A2F13700884201D344
:105390004FF0FF3070470000004870473C0000208D
:1053A00002E008C8121F08C1002AFAD170477047EE
:1053B000002001E001C1121F002AFBD1704700400C
:1053C00040404040404040404141414141404040D8
:1053D0004040404040404040404040404040400508
:1053E000020202020202020202020202020202207F
:1053F000202020202020202020020202020202027F
:10540000909090909090101010101010101010109C
:1054100010101010101010101010020202020202E0
:1054200088888888888808080808080808080808FC
:1054300008080808080808080808020202024000D4
:10544000BF53000864540008000000204000000022
:10545000A0530008A45400084000002028060000C3
:10546000B05300080000000001020304010203041D
:10547000060708090204060800A24A04000000000A
:1054800000000000010203040607080900000000F4
:105490000000000000000000640000200000000088
:0454A0000000000008
:0400000508001D31A1
:00000001FF
