:020000040800F2
:1000000068060020450100084D0100084F01000866
:1000100051010008530100085501000800000000CC
:100020000000000000000000000000005701000870
:1000300059010008000000005B0100085D01000894
:100040005F0100085F0100085F0100085F01000810
:100050005F0100085F0100085F0100085F01000800
:100060005F0100085F0100085F0100085F010008F0
:100070005F0100085F0100085F0100085F010008E0
:100080005F0100085F0100085F0100085F010008D0
:100090005F0100085F0100085F0100085F010008C0
:1000A0005F0100085F0100085F0100085F010008B0
:1000B000F93100085F0100085F0100085F010008D6
:1000C0005F0100085F0100085F0100085F01000890
:1000D0005F0100085F010008A12400085F0100081B
:1000E0005F0100085F0100085F0100085F01000870
:1000F0005F0100085F0100085F0100085F01000860
:100100005F0100085F0100085F0100085F0100084F
:100110005F0100085F0100085F0100085F0100083F
:100120005F0100085F0100085F0100085F0100082F
:10013000DFF80CD003F0B6FA004800478D23000822
:10014000680600200648804706480047FEE7FEE7AD
:10015000FEE7FEE7FEE7FEE7FEE7FEE7FEE7FEE777
:10016000852200083101000810B50446CA488442BF
:1001700008D10121042000F027FB0021042000F019
:1001800023FB46E0C548844208D10121082000F045
:100190001BFB0021082000F017FB3AE0C048844216
:1001A00008D10121102000F00FFB0021102000F0E9
:1001B0000BFB2EE0BB48844208D10121202000F037
:1001C00003FB0021202000F0FFFA22E0B648844221
:1001D00008D10121402000F0F7FA0021402000F072
:1001E000F3FA16E0B148844208D10121802000F0E2
:1001F000EBFA0021802000F0E7FA0AE0AC488442E4
:1002000007D10121801500F0DFFA0021A01500F0D0
:10021000DBFA10BD10B50121084600F0D5FA002127
:10022000012000F0D1FA10BD2DE9F0410246002571
:100230000026002000230024002791F803C00CF0C2
:100240000F0591F803C01CF0100F03D091F802C005
:100250004CEA050591F800C0BCF1000F31D01468DC
:1002600000202BE04FF0010C0CFA00F3B1F800C0B5
:100270000CEA03069E4220D183004FF00F0C0CFACB
:1002800003F7BC4305FA03FC4CEA040491F803C0ED
:10029000BCF1280F06D14FF0010C0CFA00FCC2F89B
:1002A00014C00AE091F803C0BCF1480F05D14FF02B
:1002B000010C0CFA00FCC2F810C0401C0828D1D375
:1002C0001460B1F800C0BCF1FF0F34DD54680020A9
:1002D0002EE000F1080C4FF0010808FA0CF3B1F819
:1002E00000C00CEA03069E4221D183004FF00F0CA0
:1002F0000CFA03F7BC4305FA03FC4CEA040491F83A
:1003000003C0BCF1280F05D100F1080C08FA0CF865
:10031000C2F8148091F803C0BCF1480F07D100F176
:10032000080C4FF0010808FA0CF8C2F81080401CC5
:100330000828CED35460BDE8F0814FF6FF710180EC
:10034000022181700421C170704702460020936829
:100350000B4201D0012000E0002070470146886870
:1003600080B2704702460020D3680B4201D00120C2
:1003700000E0002070470146C86880B27047016104
:100380007047416170470AB1016100E04161704707
:10039000C16070474FF480320A438261816182619B
:1003A00082698269704702460020424B18684FF606
:1003B0008073184040EA021008433E4B18607047B3
:1003C0003D49C8617047F0B50A460023002400216A
:1003D000002500F00046B6F1004F02D1354EF1691C
:1003E00001E0344E7168C0F3034583B200F4401657
:1003F000B6F5401F08D121F070612E4E766826F0C8
:1004000070662C4F7E6012E000F48016B6F5801FF7
:1004100006D1032606FA05F4A14341F0706106E017
:10042000460D360103FA06F6B14341F0706122B180
:10043000460D360103FA06F6314300F00046B6F1E8
:10044000004F02D11B4EF16101E01A4E7160F0BD08
:1004500030B500228B071C0F0F2303FA04F2154B53
:1004600008338C1053F824309343124C08348D1009
:1004700044F8253023468C1053F824308C07240F81
:1004800000FA04F423430B4C08348D1044F8253053
:1004900030BD0A490860704700080140000C014067
:1004A000001001400014014000180140001C0140F0
:1004B000002001400000014000002042DC002042FA
:1004C000DD48006840F00100DB49086008464068EC
:1004D000DA490840D849486008460068D8490840C9
:1004E000D54908600846006820F480200860084666
:1004F000406820F4FE0048604FF41F008860704799
:10050000CD49096821F48031CB4A11601146096850
:1005100021F480211160B0F5803F03D0B0F5802F29
:100520000ED106E0C449096841F48031C24A116025
:1005300007E0C149096841F4A021BF4A116000E009
:1005400000BF00BF704710B5014600220023002005
:100550004A11012A02D1B84C236806E0022A02D1CE
:10056000B54C236A01E0B44C636A01F01F02012418
:1005700094401C4201D0012000E0002010BD38B59D
:10058000002000900024002500BF3120FFF7DBFF92
:1005900005460098401C00900098B0F5A06F01D06F
:1005A000002DF2D03120FFF7CEFF08B1012400E08A
:1005B0000024204638BD014600209F4A106820F0E4
:1005C000F80040EAC100106070479E49086070471B
:1005D00002460020984B586820F47C1042EA010340
:1005E0001843954B58607047964908667047014616
:1005F0000020914A506820F0030008435060704783
:100600008D48406800F00C007047014600208A4A7F
:10061000506820F0F0000843506070470146002009
:10062000854A506820F4E0600843506070470146F6
:100630000020814A506820F4605040EAC1005060B8
:10064000704729B17C4A527A02437B4B5A7204E0CC
:10065000794A527A8243784B5A7270477A490860D5
:10066000704701460020744A506820F44040084317
:10067000506070470021754A11706F4A82F820104F
:10068000012802D0042808D103E001216F4A11702B
:1006900004E005216D4A117000E000BF00BF704703
:1006A0006B49086070476449096A0143624A1162F4
:1006B0007047674944390860704730B5002100220F
:1006C000002400235C4D6D6805F00C0121B1042964
:1006D00005D0082923D105E05E4D056022E05E4D7E
:1006E00005601FE0544D6D6805F47012524D6D6841
:1006F00005F48034022505EB92421CB9574D554351
:1007000005600BE04C4D6D6815F4003F03D0544D6F
:100710005543056002E0504D5543056002E04D4DE4
:10072000056000BF00BF444D6D6805F0F001090988
:100730004C4D6B5C0568DD4045603F4D6D6805F4D0
:10074000E061090A474D6B5C4568DD4085603A4DC4
:100750006D6805F46051C90A424D6B5C4568DD4027
:10076000C560354D6D6805F44041890B3E4D6B5CAD
:10077000C568B5FBF3F5056130BD29B12E4A526954
:1007800002432D4B5A6104E02B4A526982432A4BA3
:100790005A61704729B1284A92690243264B9A61EF
:1007A00004E0254A92698243234B9A61704729B13C
:1007B000214AD2690243204BDA6104E01E4AD26921
:1007C00082431D4BDA61704729B11B4AD26802434C
:1007D000194BDA6004E0184AD2688243164BDA609B
:1007E000704729B1144A12690243134B1A6104E09D
:1007F000114A12698243104B1A61704714494039FB
:10080000086070470F49C86470470B49C87170474A
:100810000948406A40F080700749486270470146C5
:100820000020054A92680A4201D0012000E0002021
:100830007047014988727047001002400000FFF8BD
:10084000FFFFF6FE00004242D80042422010024064
:100850008004424200127A00001BB70000093D00EC
:10086000808D5B0000000020100000200146002069
:10087000FE4A106800F03800084310607047FB49DA
:10088000096821F00801F94A11601146096801431D
:1008900011607047F549096821F01001F34A1160B1
:1008A00011460968014311607047F148EF494860FB
:1008B000F04848607047EE48EC494860ED484860B1
:1008C0007047EA48006940F08000E84908617047D5
:1008D000E648006940F08000E44908617047042060
:1008E000E249C96811F0010F01D001200EE0DF4993
:1008F000C96811F0040F01D0022007E0DB49C96884
:1009000011F0100F01D0032000E00420704700B563
:1009100002460423FFF7E3FF034603E0FFF7DFFF90
:100920000346521E012B01D1002AF7D102B905233B
:10093000184600BD30B5044604254FF43020FFF7BB
:10094000E6FF0546042D17D1C848006940F00200B3
:10095000C649086108464461006940F040000861EA
:100960004FF43020FFF7D3FF0546C048006941F639
:10097000FD710840BD490861284630BD10B504240A
:100980004FF43020FFF7C3FF0446042C16D1B748BC
:10099000006940F00400B54908610846006940F06C
:1009A000400008614FF43020FFF7B1FF0446AF4824
:1009B000006941F6FB710840AC490861204610BD52
:1009C00000B502460423FFF78AFF034603E0FFF762
:1009D00086FF0346521E012B01D1002AF7D102B92E
:1009E0000523184600BD10B504244FF43020FFF74E
:1009F000E7FF0446042C16D19C48006940F004002F
:100A00009A4908610846006940F0400008614FF4C7
:100A10003020FFF7D5FF04469448006941F6FB718A
:100A2000084092490861204610BD00208F49C969DD
:100A300011F0020F01D0012000E00020704730B516
:100A4000A5250424FFF7F1FF00B100254FF4302065
:100A5000FFF75DFF0446042C3AD18548834988603E
:100A6000844888600846006940F020000861084614
:100A7000006940F0400008614FF43020FFF747FF65
:100A80000446042C1BD17948006941F6DF71084007
:100A9000764908610846006940F010000861764810
:100AA0000580E002FFF733FF0446052C10D06F48A5
:100AB000006941F6EF7108406C49086108E0052CB7
:100AC00006D06A48006941F6EF710840674908613D
:100AD000204630BD78B506460C460425002000901F
:100AE000E802FFF714FF0546042D24D15F48006992
:100AF00040F001005D4908613480E802FFF707FF1C
:100B00000546042D10D1B01C0090200C00990880DF
:100B1000E802FFF7FCFE05465448006941F6FE7105
:100B200008405249086106E05048006941F6FE71EC
:100B300008404E490861284678BD70B504460D4608
:100B40000426F002FFF7E3FE0646042E11D14748C3
:100B5000006940F00100454908612580F002FFF777
:100B6000D6FE06464148006941F6FE7108403F49FD
:100B70000861304670BD70B505460E460424E0029B
:100B8000FFF7C5FE0446042C17D139483749886061
:100B9000384888600846006940F0100008612E80DF
:100BA000E002FFF7B4FE0446052C06D02F4800698A
:100BB00041F6EF7108402D490861204670BD2DE9CE
:100BC000F04304464FF6FF763746B046B14604255B
:100BD000E443E6B2C4F30727C4F307484FEA1469B5
:100BE000E802FFF794FE0546042D49D120481F492D
:100BF0008860204888600846006940F0100008615D
:100C0000FF2E06D01C4808300680E802FFF77FFE62
:100C10000546042D08D1FF2F06D017480A3007805B
:100C2000E802FFF774FE0546042D0AD1B8F1FF0F64
:100C300007D011480C30A0F80080E802FFF767FEEB
:100C40000546042D0AD1B9F1FF0F07D00A480E302E
:100C5000A0F80090E802FFF75AFE0546052D0FD0D8
:100C60000248006941F6EF71084007E000200240A9
:100C700023016745AB89EFCD00F8FF1F6649086186
:100C80002846BDE8F08330B5054604244FF43020F3
:100C9000FFF73DFE0446042C41D160485E49886060
:100CA0005F4888600846006940F0200008610846F7
:100CB000006940F0400008614FF43020FFF727FE44
:100CC0000446042C22D15448006941F6DF710840E3
:100CD000514908610846006940F0100008611DB1E3
:100CE00000205049088002E0A5204E4908804FF4BA
:100CF0003020FFF70CFE0446052C10D04648006952
:100D000041F6EF7108404449086108E0052C06D01F
:100D10004148006941F6DF7108403F4908612046BB
:100D200030BDF0B505460E46174604243B483A4907
:100D300088603B488860E002FFF7E9FD0446042C28
:100D400019D13548006940F010003349086147F077
:100D5000F800304328433349891C0880E002FFF73C
:100D6000D6FD0446052C06D02B48006941F6EF71EC
:100D70000840294908612046F0BD2748C06980081D
:100D800070472548006A704700202349096811F020
:100D9000200F01D0012000E00020704729B11E4A39
:100DA000126902431C4B1A6104E01B4A1269824318
:100DB000194B1A61704701460020012908D1164AD3
:100DC000D26912F0010F01D0012008E0002006E0F6
:100DD000114AD2680A4201D0012000E00020704789
:100DE0000D49C860704704200B49C96811F0010F14
:100DF00001D001200EE00849C96811F0040F01D0AC
:100E0000022007E00449C96811F0100F01D0032047
:100E100000E00420704700000020024023016745E5
:100E2000AB89EFCD00F8FF1F10B50446FB488442A4
:100E300009D101218803FFF7C7FC00214FF480404E
:100E4000FFF7C2FC32E0F648844209D10121480490
:100E5000FFF7C7FC00214FF40030FFF7C2FC25E08C
:100E6000F048844209D101218804FFF7BAFC00212F
:100E70004FF48020FFF7B5FC18E0EB48844209D11D
:100E80000121C804FFF7ADFC00214FF40020FFF75B
:100E9000A8FC0BE0E548844208D101210805FFF7D2
:100EA000A0FC00214FF48010FFF79BFC10BD2DE942
:100EB000F04786B005460E460024A24600BFA14674
:100EC0000027B08900B100BF2F462C8A4CF6FF7076
:100ED0000440F08804432C82AC894EF6F3100440A1
:100EE000B08831890843718908430443AC81AC8AD6
:100EF0004FF6FF400440B0890443AC8201A8FFF7DD
:100F0000DCFBC648874202D1DDF810A001E0DDF825
:100F10000CA0A88910F4004F08D00AEBCA0000EB1F
:100F20000A1031684900B0FBF1F807E00AEBCA008B
:100F300000EB0A1031688900B0FBF1F86420B8FBBF
:100F4000F0F004012009642101FB1089A88910F444
:100F5000004F08D0322000EBC900B0FBF1F000F0E8
:100F60000700044308E0322000EB09106421B0FBC5
:100F7000F1F000F00F0004432C8106B0BDE8F087CB
:100F80004FF41651016000218180C18001810C2144
:100F9000418100218181704710B502460020108AEE
:100FA0004FF2FF0318400B884C8823438C8823435F
:100FB000CC8823431843108210BD0021018041805A
:100FC0008180C180704721B1828942F400528281C0
:100FD00004E082894DF6FF731A4082817047F0B5B4
:100FE00003460024002600250020A1F510676A3F73
:100FF00000D100BF1846C1F3421401F01F060127BB
:1010000007FA06F5012C01D10C3004E0022C01D1C5
:10101000103000E014301AB107682F43076002E077
:101020000768AF430760F0BD1AB1838A0B43838220
:1010300002E0838A8B4383827047028A4FF6F07303
:101040001A400282028A0A430282704782894FF262
:10105000FF731A40828182890A438281704721B1DD
:10106000828942F00202828104E082894FF6FD7398
:101070001A4082817047028A4FF6DF731A4002825B
:10108000028A0A430282704721B1028A42F48042F6
:10109000028204E0028A4BF6FF731A400282704714
:1010A000C1F308028280704701468888C0F30800B7
:1010B0007047818941F0010181817047028BD2B272
:1010C0000283028B42EA012202837047028B02F400
:1010D0007F420283028B0A430283704721B1828AD6
:1010E00042F02002828204E0828A4FF6DF731A40C7
:1010F0008282704721B1828A42F01002828204E02B
:10110000828A4FF6EF731A408282704721B1828A39
:1011100042F00802828204E0828A4FF6F7731A4096
:101120008282704721B1828942F40042828103E0C9
:101130008289C2F30E028281704721B1828A42F411
:101140000062828204E0828A4FF2FF731A40828238
:101150007047828A4FF6FB731A408282828A0A4362
:101160008282704721B1828A42F00202828204E0C8
:10117000828A4FF6FD731A40828270470246002031
:10118000B1F5007F00D100BF13880B4201D00120D0
:1011900000E00020704701F40072B2F5007F00D13A
:1011A00000BFCA430280704770B502460024002386
:1011B00000250020A1F510666A3E00D100BFC1F3F2
:1011C000421501F01F03012606FA03F3012D02D197
:1011D0009689334006E0022D02D1168A334001E0A1
:1011E000968A33400C12012606FA04F4168834401D
:1011F00013B10CB1012000E0002070BD10B5002239
:101200000023A1F510646A3C00D100BF0A1201243A
:101210009440A3B2DC43048010BD000000380140BC
:101220000044004000480040004C00400050004096
:101230000020411E3E4A116040F2FF723D49C1F854
:1012400084204FF0FF314FF0E022C2F8801240F2CC
:10125000FF7239490A6000BF03E0002237490A548F
:10126000401C0B28F9D3704735490143354A1160BA
:10127000704770B5002100230F22C4780CB3314CA5
:10128000246804F4E064C4F5E064210AC1F10403B5
:10129000CA40447804FA03F18478144021430901D8
:1012A000264C0678A155047804F01F050124AC40B3
:1012B00005786D114FF0E02606EB8505C5F8004175
:1012C00009E0047804F01F050124AC40184D0678AD
:1012D000761145F8264070BD1B4A0A400243194B5F
:1012E0001B1F1A60704739B1164A121D126802435B
:1012F000144B1B1D1A6006E0124A121D126882432D
:10130000104B1B1D1A607047042808D14FF0E021D4
:10131000096941F004014FF0E022116107E04FF04C
:10132000E021096921F004014FF0E02211617047CA
:1013300080E100E000E100E084E200E000E400E0A1
:101340000000FA050CED00E080FFFF1F10B5044619
:10135000FE48844208D10121C014FFF735FA00216C
:10136000E014FFF731FAC4E0B4F1804F08D1012155
:101370000846FFF736FA00210120FFF732FAB8E0FD
:10138000F348844208D101210220FFF72AFA002104
:101390000220FFF726FAACE0EE48844208D1012192
:1013A0000420FFF71EFA00210420FFF71AFAA0E03C
:1013B000E948844208D101210820FFF712FA0021F0
:1013C0000820FFF70EFA94E0E448844208D1012196
:1013D0001020FFF706FA00211020FFF702FA88E03C
:1013E000DF48844208D101212020FFF7FAF90021CB
:1013F0002020FFF7F6F97CE0DA48844208D1012189
:101400004014FFF7E1F900216014FFF7DDF970E007
:10141000D548844209D10121C804FFF7D5F900213C
:101420004FF40020FFF7D0F963E0D048844209D19F
:1014300001210805FFF7C8F900214FF48010FFF7DC
:10144000C3F956E0CA48844209D101214805FFF793
:10145000BBF900214FF40010FFF7B6F949E0C54889
:10146000844208D101214020FFF7BBF90021402030
:10147000FFF7B7F93DE0C048844208D10121802040
:10148000FFF7AFF900218020FFF7ABF931E0BB484F
:10149000844208D101218015FFF7A3F90021A0158E
:1014A000FFF79FF925E0B648844209D101210804DD
:1014B000FFF78AF900214FF48030FFF785F918E033
:1014C000B048844209D101214804FFF77DF9002189
:1014D0004FF40030FFF778F90BE0AB48844208D1B5
:1014E00001218804FFF770F900214FF48020FFF7F5
:1014F0006BF910BD00220288944B98420ED0994B94
:1015000098420BD0B0F1804F08D0914B984205D053
:10151000904B984202D0904B984204D14FF68F7373
:101520001A404B881A438D4B984207D08C4B9842F7
:1015300004D04FF6FF431A40CB881A4302808B88B1
:1015400083850B880385814B98420BD0854B98424D
:1015500008D08B4B984205D08A4B984202D08A4BD8
:10156000984201D10B7A038601238382704770B5BC
:10157000002400220023058C4FF6FE7635400584BA
:10158000028C8388048B4FF68F752C40B51E2C403F
:101590000D882C43751E2A400D892A434D882A4305
:1015A0006A4DA8420BD06F4DA84208D0744DA84296
:1015B00005D0744DA84202D0734DA84213D14FF606
:1015C000F7752A404D892A434FF6FB752A408D88CE
:1015D0002A434FF6FF652B404FF6FF552B408D8970
:1015E0002B43CD892B4383800483CD888586028459
:1015F00070BD70B5002400220023058C4FF6EF76F5
:1016000035400584028C8388048B48F6FF752C4096
:101610004FF6FF452C400D884FF6FF7606EA05256C
:101620002C434FF6DF752A400D8906EA05152A433B
:101630004D8806EA05152A43444DA84202D0494D7B
:10164000A8421DD14FF67F752A404D894FF6FF768F
:1016500006EA05152A434FF6BF752A408D8806EA2B
:1016600005152A434FF6FF352B404FF2FF752B40EF
:101670008D8906EA85052B43CD8906EA85052B432E
:1016800083800483CD880587028470BD70B50024F3
:1016900000220023058C4FF6FF6635400584028C3E
:1016A0008388848B4FF68F752C404FF6FC752C4049
:1016B0000D882C434FF6FF552A400D894FF6FF76D3
:1016C00006EA05252A434D8806EA05252A431F4DCB
:1016D000A84202D0234DA8421DD14FF2FF752A40E7
:1016E0004D894FF6FF7606EA05252A434FF6FF356A
:1016F0002A408D8806EA05252A434EF6FF752B40C1
:101700004DF6FF752B408D8906EA05152B43CD89D3
:1017100006EA05152B4383808483CD888587028460
:1017200070BD70B5002200230024058C4EF6FF76B4
:1017300035400584038C8488828B48F6FF752A40E7
:101740004FF6FF452A400D8820E00000002C0140A4
:101750000004004000080040000C00400010004061
:101760000014004000340140004C01400050014092
:101770000054014000180040001C004000200040C0
:101780000040014000440140004801404FF6FF7610
:1017900006EA05252A434DF6FF752B400D8906EA1A
:1017A00005352B434D8806EA05352B43FA4DA842F3
:1017B00002D0FA4DA84208D14BF6FF752C408D8916
:1017C0004FF6FF7606EA85152C4384808283CD8808
:1017D000A0F84050038470BD828B4FF2FF331A4053
:1017E0008283828B4FF6FF7303EA01231A438283BD
:1017F0007047F0B50C461546002200210026078CE4
:101800004EF6FF7C07EA0C070784828B018C4FF6AB
:10181000FF7707EA043640F6FF473A404FF6FF7776
:1018200007EA05273A434FF6FF7707EA03373A43BB
:10183000D94FB8420ED0D94FB8420BD0B0F1804F3B
:1018400008D0D74FB84205D0D64FB84202D0D64FB5
:10185000B84206D14DF6FF77394046F480573943F8
:1018600005E047F6FF57394044F4805739438283F7
:101870000184F0BD828B4FF6F3731A408283828B12
:101880000A4382837047F0B50C46154600220021BA
:101890000026078C4FF6FF6C07EA0C070784828B43
:1018A000018C4FF6FF7707EA04264FF60C773A4093
:1018B0004FF6FF7707EA03172F433A43B64FB84274
:1018C0000ED0B64FB8420BD0B0F1804F08D0B44F15
:1018D000B84205D0B34FB84202D0B34FB84206D198
:1018E0004FF6FF57394046F48077394305E04FF211
:1018F000FF57394044F48077394382830184F0BD37
:10190000028B4FF2FF331A400283028B4FF6FF73B4
:1019100003EA01231A4302837047F0B50C461546CB
:10192000002200210026078C4FF6EF7C07EA0C0707
:101930000784028B018C4FF6FF7707EA041640F606
:10194000FF473A404FF6FF7707EA03373A434FF62F
:10195000FF7707EA05273A438F4FB8420ED08F4FE3
:10196000B8420BD0B0F1804F08D08D4FB84205D0AF
:101970008C4FB84202D08C4FB84206D14FF6DF7779
:10198000394046F01007394305E04FF65F7739409C
:1019900044F01007394302830184F0BD028B4FF6F7
:1019A000F3731A400283028B0A4302837047F0B537
:1019B0000C46154600220021068C4FF6FE773E406D
:1019C0000684028B018C4FF60C7632407E1C06EAB0
:1019D00003162E433243704EB0420ED06F4EB042CB
:1019E0000BD0B0F1804F08D06D4EB04205D06D4E97
:1019F000B04202D06C4EB04206D14FF6FD76314077
:101A000044F00106314305E04FF6F576314044F0ED
:101A10000106314302830184F0BD70B505460C46D2
:101A20005D4885420ED05D4885420BD0B5F1804FB0
:101A300008D05B48854205D05A48854202D05A48B2
:101A4000854200D100E000BF208850B92389A288D8
:101A500061882846FFF7ABFFE1882846FFF79EFF25
:101A600025E0208804280AD12389A2886188284695
:101A7000FFF753FFE1882846FFF742FF17E0208871
:101A800008280AD12389A28861882846FFF7FBFE2F
:101A9000E1882846FFF7EEFE09E02389A2886188E5
:101AA0002846FFF7A6FEE1882846FFF795FE70BDA1
:101AB0002DE9F04105460C4600260127608808B94B
:101AC000022600E00026A088012801D1022700E0BC
:101AD00001272088A0B92389A28861882846FFF7BA
:101AE00066FFE1882846FFF759FF23893A463146C9
:101AF0002846FFF712FFE1882846FFF701FF13E0B1
:101B00002389A28861882846FFF707FFE1882846D5
:101B1000FFF7F6FE23893A4631462846FFF747FF8E
:101B2000E1882846FFF73AFFBDE8F0810A884B8834
:101B30001A438B881A43CB881A430B891A434B8963
:101B40001A438B891A43A0F8442070474FF6FF715F
:101B5000818000210180C180418001727047002195
:101B6000018041808180C180018141818181C18169
:101B70007047002101804180012181800021C180C6
:101B8000018170470021018041808180C1800181F5
:101B90004181818170470000002C014000340140E8
:101BA0000004004000080040000C004021B1028801
:101BB00042F00102028004E002884FF6FE731A40F0
:101BC0000280704731B1B0F8442042F40042A0F8DE
:101BD000442005E0B0F84420C2F30E02A0F84420EF
:101BE00070471AB183890B43838102E083898B4359
:101BF000838170478182704741EA0203A0F8483030
:101C000070471AB183890B43838102E083898B4338
:101C10008381704701894FF6F87211400181704746
:101C20000A46002101894FF68F7319401143018143
:101C3000704730B504460D4629462046FFF7F0FFB1
:101C4000208940F00700208130BD2DE9F041044695
:101C50000D4616461F46602D06D13B4601223146F1
:101C60002046FFF75AFE05E03B460122314620465A
:101C7000FFF79DFE29462046FFF7D2FF208940F05E
:101C800007002081BDE8F08130B50C4600210189B4
:101C9000C9B24FF6FF7505EA0325154325432943CD
:101CA000018130BD2DE9F04105460E4617469846A4
:101CB000002443463A4631462846FFF7E5FF2C8983
:101CC0004FF6F870044044F007044FF68F7004405C
:101CD00044F070042C81BDE8F081F0B504460D4657
:101CE00016461F463B46324629462046FFF7CCFFA4
:101CF000208940F480402081F0BD018582827047B8
:101D00000A46002101884FF68F7319401143018064
:101D10007047F0B50C4615461E46002100220023F0
:101D20000189028B038C4FF6F877394021434FF637
:101D3000FC473A4040F201173A434FF6DD773B400B
:101D40004FF6FF7707EA06172F433B4301810283D3
:101D50000384F0BD0A460021018B4FF68F731940B2
:101D60001143018370470A460021018B48F6FF7337
:101D700019404FF6FF7303EA0223194301837047AA
:101D80000A460021818B4FF68F73194011438183DE
:101D900070470A460021818B48F6FF7319404FF6C1
:101DA000FF7303EA022319438183704721B102883C
:101DB00042F08002028004E002884FF67F731A40EE
:101DC0000280704721B1828842F00402828004E0E0
:101DD00082884FF6FB731A408280704721B1828857
:101DE00042F00802828004E082884FF6F7731A40BE
:101DF0008280704721B1828842F00102828004E033
:101E000082884FF6FE731A40828070470A4600218E
:101E1000018B4FF6F77319401143018370470A464F
:101E20000021018B4FF2FF7319404FF6FF7303EA55
:101E300002231943018370470A460021818B4FF624
:101E4000F77319401143818370470A460021818B43
:101E50004FF2FF7319404FF6FF7303EA0223194351
:101E6000818370470A460021018B4FF6FB731940AE
:101E70001143018370470A460021018B4FF6FF335F
:101E800019404FF6FF7303EA022319430183704799
:101E90000A460021818B4FF6FB7319401143818361
:101EA00070470A460021818B4FF6FF3319404FF6E9
:101EB000FF7303EA02231943818370470A46002116
:101EC000018B4FF67F7319401143018370470A4617
:101ED0000021018BC1F30E014FF6FF7303EA0223C9
:101EE0001943018370470A460021818B4FF67F73A7
:101EF00019401143818370470A460021818BC1F349
:101F00000E014FF6FF7303EA0223194381837047E2
:101F10000A460021018C4FF6FD73194011430184DC
:101F200070470A460021018C4FF6F77319401143A0
:101F3000018470470A460021018C4FF6DF73194077
:101F40004FF6FF7303EA02131943018470470A46F0
:101F50000021018C4FF67F7319404FF6FF7303EA9F
:101F600002131943018470470A460021018C4FF681
:101F7000FF5319404FF6FF7303EA0223194301840C
:101F800070470A460021018C4FF2FF7319404FF64B
:101F9000FF7303EA02231943018470470A460021B4
:101FA000018C4DF6FF7319404FF6FF7303EA0233BD
:101FB00019430184704730B5002301248C40A3B23B
:101FC000048C9C430484048C02FA01F5ADB22C43CA
:101FD000048430BD30B5002304248C40A3B2048CAB
:101FE0009C430484048C02FA01F5ADB22C430484B2
:101FF00030BD70B503460020002418461830012576
:102000008D40ACB21D8CA5431D8409B1082909D1AE
:1020100000EB6100056825F0700505600568154353
:1020200005600EE00D1FC5F34E052844056825F434
:10203000E045056005684FF6FF7606EA022635435F
:10204000056070BD21B1028842F00202028004E006
:1020500002884FF6FD731A400280704721B1028852
:1020600042F00402028004E002884FF6FB731A403B
:102070000280704721B1828842F08002828004E0B1
:1020800082884FF67F731A408280704702884FF62D
:10209000F7731A40028002880A43028070478288E0
:1020A0004FF68F731A40828082880A43828070477D
:1020B00002894FF6F8731A40028102890A430281AD
:1020C000704702894FF67F731A40028102890A43E2
:1020D000028170478184704781857047818670478F
:1020E0000187704781877047A0F8401070470288C9
:1020F0004FF6FF431A40028002880A43028070476D
:102100000146888E70470146088F70470146888FC8
:1021100070470146B1F8400070470146888C70470F
:102120000146088D704702460020138A0B4201D0F9
:10213000012000E000207047CA430282704730B59A
:102140000246002000230024158A05EA0103958930
:1021500005EA010413B10CB1012000E0002030BDFC
:10216000CA430282704700000E49086070470D495B
:10217000486070470B49886070474AF6AA200949B1
:10218000086070474CF6CC4006490860704701462D
:102190000020044AD2680A4201D0012000E0002059
:1021A00070470000003000400CB500200190009006
:1021B0006B48006840F480306949086000BF684897
:1021C000006800F4003000900198401C01900098D5
:1021D00018B90198B0F5A06FF1D16148006810F40A
:1021E000003F02D00120009001E000200090009804
:1021F000012842D15B48006840F01000594908604E
:102200000846006820F0030008600846006840F0B7
:1022100002000860524840685149486008464068DA
:1022200048600846406840F480604860084640685E
:1022300020F47C1048600846406840F4E81048608C
:102240000846006840F08070086000BF444800689D
:1022500010F0007FFAD04248406820F00300404967
:1022600048600846406840F00200486000BF3C48B3
:10227000406800F00C000828F9D10CBD10B5FFF73C
:1022800093FF10BD10B53648006840F00100344996
:1022900008600846406834490840314948600846AB
:1022A0000068324908402E4908600846006820F45A
:1022B000802008600846406820F4FE0048604FF423
:1022C0001F008860FFF7DAFF4FF0006028490860C0
:1022D00010BD10B5002100200022214B5B6803F0E7
:1022E0000C0121B1042906D0082928D107E0214B8F
:1022F000214C236027E0214B1F4C236023E0184B27
:102300005B6803F47010164B5B6803F480320223A1
:1023100003EB904022B91A4B4343174C23600DE066
:102320000F4B5B6813F4003F04D0164B4343124C31
:10233000236003E0114B43430F4C236003E00D4B3C
:102340000D4C236000BF00BF054B5B68C3F3031354
:102350000D4CE15C084B1B68CB40074C236010BD63
:1023600000100240002002400000FFF8FFFFF6FED0
:1023700008ED00E000127A0014000020001BB700F6
:1023800000093D00808D5B00180000208AB0002409
:10239000002009900026142104A801F000F900256E
:1023A00001F0CAF84FF47A7000F062FF6AE000F0C2
:1023B000CBFF032E2AD005DC4EB1012E12D0022E07
:1023C0005ED119E0042E2CD0FF2E59D155E000F03B
:1023D0003CFB04460B2C04D100202B4908700990CB
:1023E00001264EE004A800F063FE0446012C01D152
:1023F000022600E0002644E00121244800F026FAED
:102400003221234800F022FA03263AE009A904A861
:1024100000F0F4FD0446012C01D1042600E0002662
:102420002FE0002001900290039004A919A000F071
:1024300059FC05462946164800F07BFA9DF8241001
:10244000884218D10A2201A9284600F0C9F90A22B7
:1024500001A90E4800F017FA0121104800F0F6F922
:1024600001210E4800F03FFA01210C48801C00F0C9
:102470003AFAFF2600E0002603E000F007F900E04A
:1024800000BF00BF93E700002D00002000F8010806
:10249000002C010853495A450000000000F40108CF
:1024A00010B5002400207149087040F22551704891
:1024B000FEF77AFE20B340F225516D48FEF79EFEEE
:1024C0006B48FEF7F1FDC4B200206A4908706A4803
:1024D0004069002068494861684800680088B0F594
:1024E000007F0EDA6548006801886448006800884B
:1024F000401C624A1268108060480068801C445486
:1025000006E001205B49087000205C4909680880EA
:1025100040F227715648FEF747FE28B1002240F2EC
:1025200027715348FEF75BFD10BD70B504460D469C
:1025300051484069282804D300204F4948610120B0
:1025400000E0002010B101204A4908704948007895
:10255000012807D142022146284601F007F8002051
:102560004449087070BD0FB470B586B006460CA81B
:10257000019073E00B9800785C281CD10B98401CEC
:102580000B9000786E2809D072280FD10D213046AB
:10259000FEF786FD0B98401C0B900BE00A2130469D
:1025A000FEF77EFD0B98401C0B9003E00B98401C3F
:1025B0000B9000BF4BE00B980078252840D10B987A
:1025C000401C0B900078642818D0732833D10198F0
:1025D00010C801900BE021783046FEF761FD00BF86
:1025E00040213046FEF7CAFD0028F9D0641C20784F
:1025F0000028F0D10B98401C0B9020E0019820C8D7
:1026000001900A2202A9284600F0EAF802AC0BE089
:1026100021783046FEF744FD00BF40213046FEF7EA
:10262000ADFD0028F9D0641C20780028F0D10B986B
:10263000401C0B9003E00B98401C0B9000BF06E081
:102640000B9810F8011B0B903046FEF729FD00BFD8
:1026500040213046FEF792FD0028F9D00B98007813
:10266000002887D106B070BC5DF814FB2E00002056
:10267000004400402C0000204002002028000020E0
:1026800000BF0100A0F10100FBD17047012080F3E1
:10269000138800BF00BF6B48006800F4E0606A491F
:1026A0000843001D67490860BFF3408F00BF00BFAB
:1026B000FEE72DE9FF5F074688461D460024A14638
:1026C000BA46A34600264146504600F07FFF044626
:1026D00014B1BAF1000F03D1002004B0BDE8F09F9F
:1026E0004FF0000B04E0641C0BF1010000F0FF0B45
:1026F000404600F07DFF5845F5D82046029900F08D
:1027000065FF8146B9F1000F01D10020E5E703E044
:1027100014F8010BA855761C4C45F9D10020A8559A
:102720002846DAE72DE9F04706460F4614464FF0F3
:1027300000093546CA4616B1002F00DD14B9002045
:10274000BDE8F087207808B90020F9E7204600F0BE
:102750004FFF8146A7EB090000F1010A4FF0000886
:102760000EE028782178884207D14A46214628463B
:1027700000F045FF08B92846E2E76D1C08F10108A2
:10278000D045EEDB0020DBE72DE9F05F06460C4686
:1027900092461F460025AB46B046A94622464FF456
:1027A00000714046FFF7BEFF054615B1B8F1000FB6
:1027B00002D10020BDE8F09F4FF0000904E06D1C3D
:1027C00009F1010000F0FF09204600F011FF484523
:1027D000F5D852462946384600F0C8FE4046E9E79B
:1027E000F0B503460D461646002729460A2E03D0AB
:1027F000002008702846F0BD33B9302001F8010BE5
:10280000002008702846F6E7002B03DA2D2001F897
:10281000010B5B4242F210720DE093FBF2F404B93B
:1028200037B104F1300001F8010B04FB123301272A
:102830000A2092FBF0F2002AEFDC00200870284604
:10284000D9E700000CED00E00000FA052DE9F041A9
:1028500005460E4604270024FEF727F83520FEF72C
:10286000BFFA00BF07E04FF4806101FB0450FEF7A0
:1028700061F80746641CB44201D2042FF3D0FEF77E
:1028800020F8BDE8F0812DE9F04104460F4690465E
:102890003E462546FEF709F825460CE031882846D5
:1028A000FEF74BF930882988884202D00020BDE825
:1028B000F081B61CAD1C04EB0800A842EED8FEF770
:1028C00000F80120F3E7F0B50B4684180146002517
:1028D00006E091F800C02E466D1C03F806C0491CA6
:1028E000A142F6D3F0BD70B504460D46FDF7DDFFFD
:1028F00029462046FEF721F92088A84201D0002071
:1029000070BDFDF7DEFF0120FAE701460878704749
:102910003EB5002400200090019002900A226946F2
:102920001148FFF7D0FF684600F076FE04462046C7
:102930003EBDF8B506460F46002400200090002555
:1029400000BF0DE0301902226946FFF7BCFF9DF879
:1029500000002844C5B29DF801002844C5B2A41C5B
:10296000BC42EFD32846F8BD00F80108F0B5ADF53C
:10297000017D04460F46154600264FF4007101A85C
:1029800000F00DFE00209449087040F202219348A7
:10299000006800F004FE9248C06900209049C861B8
:1029A00046E04FF4007101A800F0F9FD01A98B4841
:1029B0000068801CFFF7B9FD394601A800F006FE4B
:1029C00008B1012625E040F202218448006800F0A9
:1029D000E6FD8148007858B921468248FFF7C3FDDB
:1029E00001207D4908707E48006A00207C49086209
:1029F0004FF4487000F03CFC7948C069A84204D309
:102A000000207749C861012000E0002008B10026BD
:102A100010E07348006AB0F5FA6F04D300207049E3
:102A20000862012000E0002010B100206A4908700F
:102A3000002EB6D000BF40F202216848006800F0C6
:102A4000AEFD30460DF5017DF0BD10B500246648A1
:102A500000780B2810D2DFE800F006102132435432
:102A600065768798A90000F0EBFC42F2107000F048
:102A7000FFFB01205C490870A9E042F210725BA1E3
:102A80005BA0FFF773FF0446012C03D102205649D7
:102A9000087002E000205449087098E042F2107279
:102AA00052A156A0FFF762FF0446012C03D1032078
:102AB0004D49087002E000204B49087087E042F25F
:102AC00010724AA151A0FFF751FF0446012C03D117
:102AD00004204549087002E000204349087076E070
:102AE00042F2107241A14DA0FFF740FF0446012CB5
:102AF00003D105203C49087002E000203A490870E3
:102B000065E042F2107239A14BA0FFF72FFF044697
:102B1000012C03D106203449087002E0002032491C
:102B2000087054E042F2107230A149A0FFF71EFF76
:102B30000446012C03D107202B49087002E0002035
:102B40002949087043E042F2107228A145A0FFF71E
:102B50000DFF0446012C03D108202349087002E030
:102B600000202149087032E042F210721FA144A0F7
:102B7000FFF7FCFE0446012C03D109201A49087016
:102B800002E000201849087021E042F2107217A1FB
:102B900041A0FFF7EBFE0446012C03D10A201249A5
:102BA000087002E000201049087010E044F620622E
:102BB0000EA148A0FFF7DAFE0446012C03D10B203A
:102BC0000949087002E000200749087000BF00BFF3
:102BD0000548007810BD00002E00002028000020CD
:102BE00040020020004400402D0000204F4B000018
:102BF0000D0A41542B4353510D0A00000D0A415454
:102C00002B435245473D310D0A0000000D0A415447
:102C10002B435245473F0D0A000000000D0A415466
:102C20005E534943533D302C636F6E547970652C6D
:102C300047505253300D0A000D0A41545E53494328
:102C4000533D302C61706E2C434D4E45540D0A009F
:102C50000D0A41545E495043464C3D31342C310DF0
:102C60000A0000000D0A41545E534953533D312C74
:102C7000737276547970652C6674700D0A000000CA
:102C80000D0A41545E534953533D312C636F6E49D5
:102C9000642C300D0A0000000D0A41545E53495364
:102CA000533D312C616464726573732C22667470B9
:102CB0003A2F2F777A79383934333A353230786988
:102CC000616F403031302E33766674702E636F6DD5
:102CD000220D0A000D0A41545E5349534F3D310DF8
:102CE0000A000000F0B5ADF5057D04460D4600264E
:102CF00000274FF4007105A800F051FC142168462C
:102D000000F04DFC0020FB49087040F20221FA4817
:102D1000006800F044FCF94880690020F7498861A8
:102D200055E04FF4007105A800F039FC05A9F24800
:102D30000068801CFFF7F9FBF1A105A800F046FC34
:102D400058B16B46EFA2F0A105A8FFF7B2FC6846A8
:102D500000F062FC064601272AE040F20221E64824
:102D6000006800F01CFCE348007868B92B46224656
:102D7000E9A1EF48FFF7F7FB0120DE490870DF48C3
:102D8000006A0020DD49086240F6B83000F070FAB1
:102D9000DA48806942F21071884204D30020D74992
:102DA0008861012000E0002010B100277E1E10E0A5
:102DB000D248006AB0F5FA6F04D30020CF49086208
:102DC000012000E0002010B10020CA490870002F47
:102DD000A7D000BF40F20221C748006800F0DFFB27
:102DE00030460DF5057DF0BD70B5ADF5067D0446A8
:102DF0000D460026142181A800F0D1FB4FF400718C
:102E000001A800F0CCFB40F20221BB48006800F0B2
:102E1000C6FBBA4880690020B84988614AE04FF48F
:102E2000007101A800F0BBFB01A9B3480068801C39
:102E3000FFF77BFBB2A101A800F0C8FB08B1012697
:102E400029E040F20221AC48006800F0A8FBA94844
:102E5000007868B92B462246AFA1B548FFF783FB3F
:102E60000120A4490870A548006A0020A34908620F
:102E70004FF47A6000F0FCF9A048806942F21071CA
:102E8000884204D300209D498861012000E0002091
:102E900008B1002610E09948006AB0F5FA6F04D333
:102EA000002096490862012000E0002010B10020B7
:102EB00090490870002EB2D000BF40F202218E4827
:102EC000006800F06CFB30460DF5067D70BDF0B576
:102ED000ADF50D7D05460F46002600244FF4007128
:102EE0000DA800F05CFB142108A800F058FB20217D
:102EF000684600F054FB40F202217F48006800F071
:102F00004EFB7E48806900207C49886169E04FF46F
:102F100000710DA800F043FB0DA977480068801CE4
:102F2000FFF703FB76A24FF400710DA8FFF7FAFB41
:102F3000F8B108AB73A27FA10DA8FFF7BAFB08A8F0
:102F400000F06AFB0446002C11DD7AA1684600F00F
:102F500031FB08A9684600F02DFB6AA1684600F025
:102F600029FBA2B22B4669460DA8FFF70DFC0126EE
:102F700028E040F202216048006800F010FB5D4844
:102F8000007858B96EA16A48FFF7EDFA0120594957
:102F900008705A48006A0020584908624FF4FA70D5
:102FA00000F066F95548806942F21071884204D3F6
:102FB000002052498861012000E0002010B1002665
:102FC000741E10E04D48006AB0F5FA6F04D300207B
:102FD0004A490862012000E0002010B10020454964
:102FE0000870002E93D000BF40F2022142480068D2
:102FF00000F0D5FA20460DF50D7DF0BD2DE9F04F1E
:10300000C1B081460E464FF0000B0024002700257A
:103010004FF4807101A800F0C2FADFF838A14946E8
:103020004DA0FFF75FFE0746002F03DC002041B0F4
:10303000BDE8F08F49464AA0FFF7D6FE8346BBF1B4
:10304000010F01D00020F2E731E000F07DF94FF4EC
:10305000807101A8FFF73BFF044625442A4641A1A1
:103060004548FFF780FA002C17DD4FF0000800BF3D
:1030700009E0307801A911F808100844307008F10F
:1030800001001FFA80F8A045F3DBA2B201A9504667
:10309000FFF7F9FBA244002409E01CB9AF4201D1BB
:1030A0000120C4E71CB9AF4201D00020BFE7CCE744
:1030B0002DE9F041C0B007464FF000084FF4807191
:1030C000684600F06CFA0024002600252BA122A0FF
:1030D000FFF708FE0646701C02D140B0BDE8F08143
:1030E00026A11FA0FFF780FE8046B8F1010F4BD04C
:1030F0000020F2E72E0000202800002040020020DF
:103100004F4B00000D0A00005349533A20302C3435
:103110002C3231332C0000000D0A41545E465450CD
:10312000434D443D312C25732C25730D0A000000BE
:10313000004400405E534953523A20312C000000B5
:103140000D0A41545E534953523D312C3235360DF0
:103150000A000000002C010853495A4500000000F5
:10316000474554000D0A746F74616C5F6C656E2086
:103170003D2025640D0A000000380140757064612F
:1031800074612E696E69000021E000F0DDF84FF4F3
:1031900080716846FFF79BFE04462544002C0CDD39
:1031A0002A460BA11048FFF7DEF93B460DA20FA1FE
:1031B0006846FFF77EFA002409E01CB9AE4201D14F
:1031C00001208AE71CB9AE4201D0002085E7DCE788
:1031D0000D0A696E695F746F74616C5F6C656E2057
:1031E0003D2025640D0A0000003801403A66696CF4
:1031F000655F6E616D653D0010B500240121880793
:10320000FEF79DFF012832D101218007FEF7A8FFBC
:103210002448006820B123480068401E2149086006
:1032200021480068401C2049086008460068B0F545
:103230007A7F03D108211D48FDF7A3F81A480068DA
:10324000B0F5FA6F06D108211848FDF798F800206C
:1032500015490860002408E0154850F82400401C77
:10326000134941F82400601C84B2092CF4DB10BD22
:103270000C49086000BF0B4909680029FBD1704761
:1032800010B5024600230A4850F82200884205D3B0
:103290000020074C44F82200012300E00023002016
:1032A00010BD00003000002034000020000C014060
:1032B0004002002010B5FDF703F94FF48030FDF710
:1032C0001FF9FDF75CF90446012C23D11020FDF70E
:1032D000E1FA0220FDF7CAFA0020FDF796F9002076
:1032E000FDF7A5F90020FDF799F921050811FDF773
:1032F0006FF90120FDF778F900BF3920FDF723F9B8
:103300000028FAD00220FDF772F900BFFDF778F926
:103310000828FBD101218F48FDF749FA01213D2002
:10332000FDF738FA10BD10B545F25550FEF71CFFF9
:103330000620FEF71CFF40F6FE70FEF71BFFFEF7AF
:103340001CFFFEF71FFF10BD10B5FEF716FF10BDE6
:1033500008B501218048FDF736F80820ADF80000D7
:1033600010208DF8030003208DF8020069467B4889
:10337000FCF75AFF0420ADF8000018208DF8030078
:1033800003208DF8020069467548FCF74DFF0820C0
:10339000ADF8000004208DF8030003208DF8020032
:1033A00069466F48FCF740FF0320ADF800008DF838
:1033B000020010208DF8030069466948FCF734FFCD
:1033C0004FF40050ADF8000003208DF802001020EB
:1033D0008DF8030069466348FCF726FF4FF400515F
:1033E0006048FCF7CEFF02215D48FCF7CAFF0121CF
:1033F0005B48FCF7C6FF08BD3EB54FF47A74E006A3
:10340000FDF7A4FF0020ADF80200ADF80600601E35
:1034100080B2ADF804004720ADF800006946E00630
:10342000FEF768F80021E006FEF754FE012211467F
:103430009007FEF7D6FB01218807FEF7B7FB3EBDDC
:1034400010B54FF400514748FCF799FF022144485A
:10345000FCF797FFFA20FFF70BFF01214048FCF72C
:103460008EFFC820FFF704FF01213D48FCF789FFCC
:10347000C820FFF7FDFE02213948FCF780FF40F22B
:103480004C40FFF7F5FE02213548FCF77AFF10BDEE
:103490001FB53548FDF7C8FC4FF4E130009000201F
:1034A000ADF80400ADF80600ADF80800ADF80C006A
:1034B0000C20ADF80A0069462B48FDF7F8FC012204
:1034C00040F227712848FDF78AFD012240F225517C
:1034D0002548FDF784FD01212348FDF774FD1FBD3C
:1034E00008B5FDF7A5FE4FF4E0514FF00060FDF781
:1034F000F3FE4FF4E060FDF7B7FE1C208DF80000EE
:103500000A208DF8010000208DF8020001208DF8BE
:1035100003006846FDF7ADFE26208DF8000001206F
:103520008DF8010000208DF8020001208DF80300C5
:103530006846FDF79EFE08BD10B5FFF7BBFEFFF71E
:10354000CFFFFFF705FFFFF7EEFEFFF755FFFFF791
:103550009FFF10BD0100020000023000000C01407E
:1035600000080140001001400044004040EA01030F
:103570009B0703D009E008C9121F08C0042AFAD229
:1035800003E011F8013B00F8013B521EF9D27047ED
:10359000D2B201E000F8012B491EFBD27047002295
:1035A000F6E710B513460A4604461946FFF7F0FF42
:1035B000204610BD421E12F8013F002BFBD111F82E
:1035C000013B02F8013B002BF9D1704730B50546AD
:1035D0002A460B4612F8010B13F8014B08B1A04222
:1035E000F8D01CB1002802D06D1CF1E7284630BD90
:1035F000421C10F8011B0029FBD1801A704730B51E
:1036000004460020034600E05B1C934203D2E05CCA
:10361000CD5C401BF8D030BD70B5064600F0B6F862
:10362000046805460A220021304600F002F82C60AA
:1036300070BD2DE9F04791460F46804604460026AE
:1036400014F8015B2DB100F03FF80068405DC00741
:10365000F6D12B2D02D02D2D18D0641E4A463946A6
:10366000204600F035F827B13968A14201D1C7F8EA
:10367000008071054FF002040BD54042002803DDA5
:1036800000F084F80460A007BDE8F08746F4806687
:10369000E4E70028F8DA00F079F804606FF0004001
:1036A000F2E70000064C074D06E0E06840F0010339
:1036B00094E8070098471034AC42F6D3FCF73CFD81
:1036C0003838000858380008004870473438000877
:1036D0002DE9F05F82460078002715468B460AF1F7
:1036E0000104B946302801D09DB113E014F8010B54
:1036F0000127782803D0582801D045B10AE00DB140
:10370000102D07D10027102514F8010B02E0082521
:1037100000E00A250026B0460EE005FB080005FB88
:1037200006F1012701EB10461FFA80F8B6F5803F3D
:1037300000D3B94614F8010B294600F018F8002808
:10374000EBDABBF1000F05D00FB1641E00E0544668
:10375000CBF80040B9F1000F06D000F017F80221B5
:103760000160C81EBDE8F09F48EA0640FAE73A2823
:1037700000D2303820F02002412A01D3A2F13700D4
:10378000884201D34FF0FF30704700000048704777
:103790003800002002E008C8121F08C1002AFAD130
:1037A00070477047002001E001C1121F002AFBD1C1
:1037B000704700404040404040404040414141410E
:1037C00041404040404040404040404040404040F8
:1037D000404040050202020202020202020202020C
:1037E000020202202020202020202020200202028D
:1037F0000202020290909090909010101010101001
:1038000010101010101010101010101010100202D4
:103810000202020288888888888808080808080840
:103820000808080808080808080808080808020224
:1038300002024000B337000858380008000000209A
:103840003C00000094370008943800083C00002039
:103850002C060000A4370008000000000102030449
:1038600001020304060708090204060800A24A042C
:103870000000000000000000010203040607080920
:103880003C000020000000000000000000000000DC
:043890000000000034
:0400000508000131BD
:00000001FF
